{
  "contractName": "BettingGame",
  "abi": [
    {
      "inputs": [
        {
          "internalType": "contract We_Made_Future",
          "name": "_WMF",
          "type": "address"
        }
      ],
      "stateMutability": "nonpayable",
      "type": "constructor"
    },
    {
      "anonymous": false,
      "inputs": [
        {
          "indexed": true,
          "internalType": "address",
          "name": "sender",
          "type": "address"
        },
        {
          "indexed": false,
          "internalType": "uint256",
          "name": "amount",
          "type": "uint256"
        }
      ],
      "name": "Received",
      "type": "event"
    },
    {
      "anonymous": false,
      "inputs": [
        {
          "indexed": false,
          "internalType": "uint256",
          "name": "id",
          "type": "uint256"
        },
        {
          "indexed": false,
          "internalType": "uint256",
          "name": "bet",
          "type": "uint256"
        },
        {
          "indexed": false,
          "internalType": "uint256",
          "name": "randomSeed",
          "type": "uint256"
        },
        {
          "indexed": false,
          "internalType": "uint256",
          "name": "amount",
          "type": "uint256"
        },
        {
          "indexed": false,
          "internalType": "address",
          "name": "player",
          "type": "address"
        },
        {
          "indexed": false,
          "internalType": "uint256",
          "name": "winAmount",
          "type": "uint256"
        },
        {
          "indexed": false,
          "internalType": "uint256",
          "name": "randomResult",
          "type": "uint256"
        },
        {
          "indexed": false,
          "internalType": "uint256",
          "name": "time",
          "type": "uint256"
        }
      ],
      "name": "Result",
      "type": "event"
    },
    {
      "anonymous": false,
      "inputs": [
        {
          "indexed": false,
          "internalType": "address",
          "name": "admin",
          "type": "address"
        },
        {
          "indexed": false,
          "internalType": "uint256",
          "name": "amount",
          "type": "uint256"
        }
      ],
      "name": "Withdraw",
      "type": "event"
    },
    {
      "inputs": [],
      "name": "WMF",
      "outputs": [
        {
          "internalType": "contract We_Made_Future",
          "name": "",
          "type": "address"
        }
      ],
      "stateMutability": "view",
      "type": "function"
    },
    {
      "inputs": [],
      "name": "admin",
      "outputs": [
        {
          "internalType": "address",
          "name": "",
          "type": "address"
        }
      ],
      "stateMutability": "view",
      "type": "function"
    },
    {
      "inputs": [],
      "name": "gameId",
      "outputs": [
        {
          "internalType": "uint256",
          "name": "",
          "type": "uint256"
        }
      ],
      "stateMutability": "view",
      "type": "function"
    },
    {
      "inputs": [
        {
          "internalType": "uint256",
          "name": "",
          "type": "uint256"
        }
      ],
      "name": "games",
      "outputs": [
        {
          "internalType": "uint256",
          "name": "id",
          "type": "uint256"
        },
        {
          "internalType": "uint256",
          "name": "bet",
          "type": "uint256"
        },
        {
          "internalType": "uint256",
          "name": "seed",
          "type": "uint256"
        },
        {
          "internalType": "uint256",
          "name": "amount",
          "type": "uint256"
        },
        {
          "internalType": "address",
          "name": "player",
          "type": "address"
        }
      ],
      "stateMutability": "view",
      "type": "function"
    },
    {
      "inputs": [],
      "name": "lastGameId",
      "outputs": [
        {
          "internalType": "uint256",
          "name": "",
          "type": "uint256"
        }
      ],
      "stateMutability": "view",
      "type": "function"
    },
    {
      "inputs": [],
      "name": "randomResult",
      "outputs": [
        {
          "internalType": "uint256",
          "name": "",
          "type": "uint256"
        }
      ],
      "stateMutability": "view",
      "type": "function"
    },
    {
      "inputs": [
        {
          "internalType": "bytes32",
          "name": "requestId",
          "type": "bytes32"
        },
        {
          "internalType": "uint256",
          "name": "randomness",
          "type": "uint256"
        }
      ],
      "name": "rawFulfillRandomness",
      "outputs": [],
      "stateMutability": "nonpayable",
      "type": "function"
    },
    {
      "inputs": [
        {
          "internalType": "uint256",
          "name": "amount",
          "type": "uint256"
        },
        {
          "internalType": "uint256",
          "name": "bet",
          "type": "uint256"
        },
        {
          "internalType": "uint256",
          "name": "seed",
          "type": "uint256"
        }
      ],
      "name": "game",
      "outputs": [
        {
          "internalType": "bool",
          "name": "",
          "type": "bool"
        }
      ],
      "stateMutability": "nonpayable",
      "type": "function"
    },
    {
      "inputs": [
        {
          "internalType": "uint256",
          "name": "random",
          "type": "uint256"
        }
      ],
      "name": "verdict",
      "outputs": [],
      "stateMutability": "nonpayable",
      "type": "function"
    },
    {
      "inputs": [
        {
          "internalType": "uint256",
          "name": "amount",
          "type": "uint256"
        }
      ],
      "name": "withdrawLink",
      "outputs": [],
      "stateMutability": "nonpayable",
      "type": "function"
    },
    {
      "inputs": [
        {
          "internalType": "uint256",
          "name": "amount",
          "type": "uint256"
        }
      ],
      "name": "withdrawWMF",
      "outputs": [],
      "stateMutability": "nonpayable",
      "type": "function"
    }
  ],
  "bytecode": "0x60c060405234801561001057600080fd5b506040516119153803806119158339818101604052602081101561003357600080fd5b810190808051906020019092919050505073b3dccb4cf7a26f6cf6b120cf5a73875b7bbc655b7301be23585060835e02b77ef475b0cc51aa1e07098173ffffffffffffffffffffffffffffffffffffffff1660a08173ffffffffffffffffffffffffffffffffffffffff1660601b815250508073ffffffffffffffffffffffffffffffffffffffff1660808173ffffffffffffffffffffffffffffffffffffffff1660601b81525050505067016345785d8a000060028190555033600660006101000a81548173ffffffffffffffffffffffffffffffffffffffff021916908373ffffffffffffffffffffffffffffffffffffffff16021790555080600160006101000a81548173ffffffffffffffffffffffffffffffffffffffff021916908373ffffffffffffffffffffffffffffffffffffffff1602179055505060805160601c60a05160601c61176d6101a8600039806105e652806113d752508061048f5280611235528061139b525061176d6000f3fe608060405234801561001057600080fd5b50600436106100a95760003560e01c806394985ddd1161007157806394985ddd146101ec578063d3dc1fdf14610224578063d79d59f914610252578063d7c81b55146102ac578063e46e7756146102ca578063f851a440146102f8576100a9565b8063117a5b90146100ae5780633ee9d6481461013857806342619f66146101565780635f38a26b146101745780637a8042bd146101be575b600080fd5b6100da600480360360208110156100c457600080fd5b8101908080359060200190929190505050610342565b604051808681526020018581526020018481526020018381526020018273ffffffffffffffffffffffffffffffffffffffff1673ffffffffffffffffffffffffffffffffffffffff1681526020019550505050505060405180910390f35b610140610398565b6040518082815260200191505060405180910390f35b61015e61039e565b6040518082815260200191505060405180910390f35b61017c6103a4565b604051808273ffffffffffffffffffffffffffffffffffffffff1673ffffffffffffffffffffffffffffffffffffffff16815260200191505060405180910390f35b6101ea600480360360208110156101d457600080fd5b81019080803590602001909291905050506103ca565b005b6102226004803603604081101561020257600080fd5b8101908080359060200190929190803590602001909291905050506105e4565b005b6102506004803603602081101561023a57600080fd5b81019080803590602001909291905050506106b3565b005b6102926004803603606081101561026857600080fd5b81019080803590602001909291908035906020019092919080359060200190929190505050610acc565b604051808215151515815260200191505060405180910390f35b6102b4610e60565b6040518082815260200191505060405180910390f35b6102f6600480360360208110156102e057600080fd5b8101908080359060200190929190505050610e66565b005b6103006111f2565b604051808273ffffffffffffffffffffffffffffffffffffffff1673ffffffffffffffffffffffffffffffffffffffff16815260200191505060405180910390f35b60076020528060005260406000206000915090508060000154908060010154908060020154908060030154908060040160009054906101000a900473ffffffffffffffffffffffffffffffffffffffff16905085565b60055481565b60035481565b600160009054906101000a900473ffffffffffffffffffffffffffffffffffffffff1681565b600660009054906101000a900473ffffffffffffffffffffffffffffffffffffffff1673ffffffffffffffffffffffffffffffffffffffff163373ffffffffffffffffffffffffffffffffffffffff161461048d576040517f08c379a00000000000000000000000000000000000000000000000000000000081526004018080602001828103825260178152602001807f63616c6c6572206973206e6f74207468652061646d696e00000000000000000081525060200191505060405180910390fd5b7f000000000000000000000000000000000000000000000000000000000000000073ffffffffffffffffffffffffffffffffffffffff1663a9059cbb33836040518363ffffffff1660e01b8152600401808373ffffffffffffffffffffffffffffffffffffffff1673ffffffffffffffffffffffffffffffffffffffff16815260200182815260200192505050602060405180830381600087803b15801561053457600080fd5b505af1158015610548573d6000803e3d6000fd5b505050506040513d602081101561055e57600080fd5b81019080805190602001909291905050506105e1576040517f08c379a00000000000000000000000000000000000000000000000000000000081526004018080602001828103825260198152602001807f4572726f722c20756e61626c6520746f207472616e736665720000000000000081525060200191505060405180910390fd5b50565b7f000000000000000000000000000000000000000000000000000000000000000073ffffffffffffffffffffffffffffffffffffffff163373ffffffffffffffffffffffffffffffffffffffff16146106a5576040517f08c379a000000000000000000000000000000000000000000000000000000000815260040180806020018281038252601f8152602001807f4f6e6c7920565246436f6f7264696e61746f722063616e2066756c66696c6c0081525060200191505060405180910390fd5b6106af8282611218565b5050565b73b3dccb4cf7a26f6cf6b120cf5a73875b7bbc655b73ffffffffffffffffffffffffffffffffffffffff163373ffffffffffffffffffffffffffffffffffffffff1614610768576040517f08c379a00000000000000000000000000000000000000000000000000000000081526004018080602001828103825260208152602001807f6f6e6c7920564652432063616e2063616c6c20746869732066756e6374696f6e81525060200191505060405180910390fd5b600060055490505b600454811015610abf5760008090507f800000000000000000000000000000000000000000000000000000000000000083101580156107c5575060016007600084815260200190815260200160002060010154145b8061081157507f800000000000000000000000000000000000000000000000000000000000000083108015610810575060006007600084815260200190815260200160002060010154145b5b15610988576002600760008481526020019081526020016000206003015402905060006007600084815260200190815260200160002060040160009054906101000a900473ffffffffffffffffffffffffffffffffffffffff169050600160009054906101000a900473ffffffffffffffffffffffffffffffffffffffff1673ffffffffffffffffffffffffffffffffffffffff166323b872dd3083856040518463ffffffff1660e01b8152600401808473ffffffffffffffffffffffffffffffffffffffff1673ffffffffffffffffffffffffffffffffffffffff1681526020018373ffffffffffffffffffffffffffffffffffffffff1673ffffffffffffffffffffffffffffffffffffffff1681526020018281526020019350505050602060405180830381600087803b15801561094a57600080fd5b505af115801561095e573d6000803e3d6000fd5b505050506040513d602081101561097457600080fd5b810190808051906020019092919050505050505b7f42454dd863e57d7fc7c2c8c6a3d1385748e0c2c5224b37d27cad5fb088ddf47b60076000848152602001908152602001600020600001546007600085815260200190815260200160002060010154600760008681526020019081526020016000206002015460076000878152602001908152602001600020600301546007600088815260200190815260200160002060040160009054906101000a900473ffffffffffffffffffffffffffffffffffffffff16868942604051808981526020018881526020018781526020018681526020018573ffffffffffffffffffffffffffffffffffffffff1673ffffffffffffffffffffffffffffffffffffffff1681526020018481526020018381526020018281526020019850505050505050505060405180910390a1508080600101915050610770565b5060045460058190555050565b60006001831115610b45576040517f08c379a000000000000000000000000000000000000000000000000000000000815260040180806020018281038252601a8152602001807f4572726f722c20616363657074206f6e6c79203020616e64203100000000000081525060200191505060405180910390fd5b83600160009054906101000a900473ffffffffffffffffffffffffffffffffffffffff1673ffffffffffffffffffffffffffffffffffffffff166370a08231306040518263ffffffff1660e01b8152600401808273ffffffffffffffffffffffffffffffffffffffff1673ffffffffffffffffffffffffffffffffffffffff16815260200191505060206040518083038186803b158015610be557600080fd5b505afa158015610bf9573d6000803e3d6000fd5b505050506040513d6020811015610c0f57600080fd5b81019080805190602001909291905050501015610c94576040517f08c379a00000000000000000000000000000000000000000000000000000000081526004018080602001828103825260208152602001807f4572726f722c20696e737566666963656e74207661756c742062616c616e636581525060200191505060405180910390fd5b6040518060a0016040528060045481526020018481526020018381526020018581526020013373ffffffffffffffffffffffffffffffffffffffff168152506007600060045481526020019081526020016000206000820151816000015560208201518160010155604082015181600201556060820151816003015560808201518160040160006101000a81548173ffffffffffffffffffffffffffffffffffffffff021916908373ffffffffffffffffffffffffffffffffffffffff160217905550905050600160009054906101000a900473ffffffffffffffffffffffffffffffffffffffff1673ffffffffffffffffffffffffffffffffffffffff1663a9059cbb30866040518363ffffffff1660e01b8152600401808373ffffffffffffffffffffffffffffffffffffffff1673ffffffffffffffffffffffffffffffffffffffff16815260200182815260200192505050602060405180830381600087803b158015610e0357600080fd5b505af1158015610e17573d6000803e3d6000fd5b505050506040513d6020811015610e2d57600080fd5b810190808051906020019092919050505050600160045401600481905550610e548261122e565b50600190509392505050565b60045481565b600660009054906101000a900473ffffffffffffffffffffffffffffffffffffffff1673ffffffffffffffffffffffffffffffffffffffff163373ffffffffffffffffffffffffffffffffffffffff1614610f29576040517f08c379a00000000000000000000000000000000000000000000000000000000081526004018080602001828103825260178152602001807f63616c6c6572206973206e6f74207468652061646d696e00000000000000000081525060200191505060405180910390fd5b80600160009054906101000a900473ffffffffffffffffffffffffffffffffffffffff1673ffffffffffffffffffffffffffffffffffffffff166370a08231306040518263ffffffff1660e01b8152600401808273ffffffffffffffffffffffffffffffffffffffff1673ffffffffffffffffffffffffffffffffffffffff16815260200191505060206040518083038186803b158015610fc957600080fd5b505afa158015610fdd573d6000803e3d6000fd5b505050506040513d6020811015610ff357600080fd5b8101908080519060200190929190505050101561105b576040517f08c379a00000000000000000000000000000000000000000000000000000000081526004018080602001828103825260278152602001806116df6027913960400191505060405180910390fd5b600160009054906101000a900473ffffffffffffffffffffffffffffffffffffffff1673ffffffffffffffffffffffffffffffffffffffff1663a9059cbb600660009054906101000a900473ffffffffffffffffffffffffffffffffffffffff16836040518363ffffffff1660e01b8152600401808373ffffffffffffffffffffffffffffffffffffffff1673ffffffffffffffffffffffffffffffffffffffff16815260200182815260200192505050602060405180830381600087803b15801561112657600080fd5b505af115801561113a573d6000803e3d6000fd5b505050506040513d602081101561115057600080fd5b8101908080519060200190929190505050507f884edad9ce6fa2440d8a54cc123490eb96d2768479d49ff9c7366125a9424364600660009054906101000a900473ffffffffffffffffffffffffffffffffffffffff1682604051808373ffffffffffffffffffffffffffffffffffffffff1673ffffffffffffffffffffffffffffffffffffffff1681526020018281526020019250505060405180910390a150565b600660009054906101000a900473ffffffffffffffffffffffffffffffffffffffff1681565b8060038190555061122a6003546106b3565b5050565b60006002547f000000000000000000000000000000000000000000000000000000000000000073ffffffffffffffffffffffffffffffffffffffff166370a08231306040518263ffffffff1660e01b8152600401808273ffffffffffffffffffffffffffffffffffffffff1673ffffffffffffffffffffffffffffffffffffffff16815260200191505060206040518083038186803b1580156112d057600080fd5b505afa1580156112e4573d6000803e3d6000fd5b505050506040513d60208110156112fa57600080fd5b810190808051906020019092919050505011611361576040517f08c379a00000000000000000000000000000000000000000000000000000000081526004018080602001828103825260328152602001806117066032913960400191505060405180910390fd5b6113907f2ed0feb3e7fd2022120aa84fab1945545a9f2ffc9076fd6156fa96eaff4c131160001b600254611397565b9050919050565b60007f000000000000000000000000000000000000000000000000000000000000000073ffffffffffffffffffffffffffffffffffffffff16634000aea07f00000000000000000000000000000000000000000000000000000000000000008486600060405160200180838152602001828152602001925050506040516020818303038152906040526040518463ffffffff1660e01b8152600401808473ffffffffffffffffffffffffffffffffffffffff1673ffffffffffffffffffffffffffffffffffffffff16815260200183815260200180602001828103825283818151815260200191508051906020019080838360005b838110156114a757808201518184015260208101905061148c565b50505050905090810190601f1680156114d45780820380516001836020036101000a031916815260200191505b50945050505050602060405180830381600087803b1580156114f557600080fd5b505af1158015611509573d6000803e3d6000fd5b505050506040513d602081101561151f57600080fd5b810190808051906020019092919050505050600061155284600030600080898152602001908152602001600020546115a3565b905061157a60016000808781526020019081526020016000205461161d90919063ffffffff16565b6000808681526020019081526020016000208190555061159a84826116a5565b91505092915050565b600084848484604051602001808581526020018481526020018373ffffffffffffffffffffffffffffffffffffffff1673ffffffffffffffffffffffffffffffffffffffff1681526020018281526020019450505050506040516020818303038152906040528051906020012060001c9050949350505050565b60008082840190508381101561169b576040517f08c379a000000000000000000000000000000000000000000000000000000000815260040180806020018281038252601b8152602001807f536166654d6174683a206164646974696f6e206f766572666c6f77000000000081525060200191505060405180910390fd5b8091505092915050565b6000828260405160200180838152602001828152602001925050506040516020818303038152906040528051906020012090509291505056fe4572726f722c20636f6e74726163742068617320696e737566666963656e742062616c616e63654572726f722c206e6f7420656e6f756768204c494e4b202d2066696c6c20636f6e7472616374207769746820666175636574a2646970667358221220efdb1140d24b2afc531f39181355929490af95a6e7192acb09a86e7d82c4231964736f6c63430006060033",
  "immutableReferences": {
    "76": [
      {
        "length": 32,
        "start": 1167
      },
      {
        "length": 32,
        "start": 4661
      },
      {
        "length": 32,
        "start": 5019
      }
    ],
    "78": [
      {
        "length": 32,
        "start": 1510
      },
      {
        "length": 32,
        "start": 5079
      }
    ]
  },
  "source": "/** Contract created based on: https://docs.chain.link/docs/get-a-random-number\r\n *  Contract created only for educational purposes, by: github.com/dappuniversity\r\n *  You will need testnet ETH and LINK.\r\n *     - Rinkeby ETH faucet: https://faucet.rinkeby.io/\r\n *     - Rinkeby LINK faucet: https://rinkeby.chain.link/\r\n */\r\n\r\n/** !UPDATE\r\n * min. bet >= $1 in Ethereum\r\n * \r\n * ETH/USD price will be received from Chainlink Oracles prices feed aggregator.\r\n * more: https://docs.chain.link/docs/using-chainlink-reference-contracts.\r\n */\r\npragma solidity 0.6.6;\r\n\r\nimport \"./Token/We_Made_Future.sol\";\r\nimport \"@chainlink/contracts/src/v0.6/VRFConsumerBase.sol\";\r\n\r\ncontract BettingGame is VRFConsumerBase {\r\n    \r\n  We_Made_Future public WMF; \r\n\r\n  uint256 internal fee;\r\n  uint256 public randomResult;\r\n  \r\n  //Network: Rinkeby\r\n  address constant VFRC_address = 0xb3dCcb4Cf7a26f6cf6B120Cf5A73875B7BBc655B; // VRF Coordinator\r\n  address constant LINK_address = 0x01BE23585060835E02B77ef475b0Cc51aA1e0709; // LINK token\r\n  \r\n  //declaring 50% chance, (0.5*(uint256+1))\r\n  uint256 constant half = 57896044618658097711785492504343953926634992332820282019728792003956564819968;\r\n  \r\n  //keyHash - one of the component from which will be generated final random value by Chainlink VFRC.\r\n  bytes32 constant internal keyHash = 0x2ed0feb3e7fd2022120aa84fab1945545a9f2ffc9076fd6156fa96eaff4c1311;\r\n  \r\n  uint256 public gameId;\r\n  uint256 public lastGameId;\r\n  address public admin;\r\n  mapping(uint256 => Game) public games;\r\n\r\n  struct Game{\r\n    uint256 id;\r\n    uint256 bet;\r\n    uint256 seed;\r\n    uint256 amount;\r\n    address player;\r\n  }\r\n\r\n  modifier onlyAdmin() {\r\n    require(msg.sender == admin, 'caller is not the admin');\r\n    _;\r\n  }\r\n\r\n  modifier onlyVFRC() {\r\n    require(msg.sender == VFRC_address, 'only VFRC can call this function');\r\n    _;\r\n  }\r\n  \r\n  event Withdraw(address admin, uint256 amount);\r\n  event Received(address indexed sender, uint256 amount);\r\n  event Result(uint256 id, uint256 bet, uint256 randomSeed, uint256 amount, address player, uint256 winAmount, uint256 randomResult, uint256 time);\r\n  \r\n  /**\r\n   * Constructor inherits VRFConsumerBase.\r\n   */\r\n  constructor(We_Made_Future _WMF) VRFConsumerBase(VFRC_address, LINK_address) public {\r\n    fee = 0.1 * 10 ** 18; // 0.1 LINK\r\n    admin = msg.sender;\r\n    WMF = _WMF;\r\n  }\r\n  \r\n  /**\r\n   * Taking bets function.\r\n   * By winning, user 2x his betAmount.\r\n   * Chances to win and lose are the same.\r\n   */\r\n  function game(uint256 amount, uint256 bet, uint256 seed) public returns (bool) {\r\n    //bet=0 is low, refers to 1-3  dice values\r\n    //bet=1 is high, refers to 4-6 dice values\r\n    require(bet<=1, 'Error, accept only 0 and 1');\r\n\r\n    //vault balance must be at least equal to msg.value\r\n    require(WMF.balanceOf(address(this))>=amount, 'Error, insufficent vault balance');\r\n    \r\n    //each bet has unique id\r\n    games[gameId] = Game(gameId, bet, seed, amount, msg.sender);\r\n\r\n    WMF.transfer(address(this), amount);\r\n    \r\n    //increase gameId for the next bet\r\n    gameId = gameId+1;\r\n\r\n    //seed is auto-generated by DApp\r\n    getRandomNumber(seed);\r\n    \r\n    return true;\r\n  }\r\n  \r\n  /** \r\n   * Request for randomness.\r\n   */\r\n  function getRandomNumber(uint256 userProvidedSeed) internal returns (bytes32 requestId) {\r\n    require(LINK.balanceOf(address(this)) > fee, \"Error, not enough LINK - fill contract with faucet\");\r\n    return requestRandomness(keyHash, fee);\r\n  }\r\n\r\n  /**\r\n   * Callback function used by VRF Coordinator.\r\n   */\r\n  function fulfillRandomness(bytes32 requestId, uint256 randomness) internal override {\r\n    randomResult = randomness;\r\n\r\n    //send final random value to the verdict();\r\n    verdict(randomResult);\r\n  }\r\n  \r\n  /**\r\n   * Send rewards to the winners.\r\n   */\r\n  function verdict(uint256 random) public onlyVFRC {\r\n    //check bets from latest betting round, one by one\r\n    for(uint256 i=lastGameId; i<gameId; i++){\r\n      //reset winAmount for current user\r\n      uint256 winAmount = 0;\r\n      \r\n      //if user wins, then receives 2x of their betting amount\r\n      if((random>=half && games[i].bet==1) || (random<half && games[i].bet==0)){\r\n        winAmount = games[i].amount*2;\r\n        address winner = games[i].player;\r\n        WMF.transferFrom(address(this), winner, winAmount);\r\n      }\r\n      emit Result(games[i].id, games[i].bet, games[i].seed, games[i].amount, games[i].player, winAmount, random, block.timestamp);\r\n    }\r\n    //save current gameId to lastGameId for the next betting round\r\n    lastGameId = gameId;\r\n  }\r\n  \r\n  /**\r\n   * Withdraw LINK from this contract (admin option).\r\n   */\r\n  function withdrawLink(uint256 amount) external onlyAdmin {\r\n    require(LINK.transfer(msg.sender, amount), \"Error, unable to transfer\");\r\n  }\r\n  \r\n  function withdrawWMF(uint256 amount) external  onlyAdmin {\r\n  require(WMF.balanceOf(address(this))>=amount, 'Error, contract has insufficent balance');\r\n  WMF.transfer(admin, amount);\r\n\r\n  emit Withdraw(admin, amount);\r\n}\r\n}\r\n",
  "sourcePath": "C:\\Users\\82102\\Desktop\\12341\\1212121212\\contracts\\Bettinggame.sol",
  "compiler": {
    "name": "solc",
    "version": "0.6.6+commit.6c089d02.Emscripten.clang"
  },
  "schemaVersion": "3.4.4",
  "updatedAt": "2022-02-06T12:09:07.505Z",
  "devdoc": {
    "methods": {}
  },
  "userdoc": {
    "methods": {
      "constructor": "Constructor inherits VRFConsumerBase.",
      "game(uint256,uint256,uint256)": {
        "notice": "Taking bets function. By winning, user 2x his betAmount. Chances to win and lose are the same."
      },
      "verdict(uint256)": {
        "notice": "Send rewards to the winners."
      },
      "withdrawLink(uint256)": {
        "notice": "Withdraw LINK from this contract (admin option)."
      }
    }
  }
}