{
  "contractName": "ChainlinkETHUSDPriceConsumer",
  "abi": [
    {
      "inputs": [],
      "stateMutability": "nonpayable",
      "type": "constructor"
    },
    {
      "inputs": [],
      "name": "getLatestPrice",
      "outputs": [
        {
          "internalType": "int256",
          "name": "",
          "type": "int256"
        }
      ],
      "stateMutability": "view",
      "type": "function"
    },
    {
      "inputs": [],
      "name": "getDecimals",
      "outputs": [
        {
          "internalType": "uint8",
          "name": "",
          "type": "uint8"
        }
      ],
      "stateMutability": "view",
      "type": "function"
    }
  ],
  "bytecode": "0x608060405234801561001057600080fd5b50738a753747a1fa494ec906ce90e9f37563a8af630e6000806101000a81548173ffffffffffffffffffffffffffffffffffffffff021916908373ffffffffffffffffffffffffffffffffffffffff1602179055506104ce806100746000396000f3fe608060405234801561001057600080fd5b50600436106100365760003560e01c80638e15f4731461003b578063f0141d8414610059575b600080fd5b610043610077565b604051610050919061039e565b60405180910390f35b6100616101a6565b60405161006e91906103d9565b60405180910390f35b60008060008060008060009054906101000a900473ffffffffffffffffffffffffffffffffffffffff1673ffffffffffffffffffffffffffffffffffffffff1663feaf968c6040518163ffffffff1660e01b815260040160a06040518083038186803b1580156100e657600080fd5b505afa1580156100fa573d6000803e3d6000fd5b505050506040513d601f19601f8201168201806040525081019061011e91906102a0565b94509450509350935060008312158015610139575060008214155b801561015d57508369ffffffffffffffffffff168169ffffffffffffffffffff1610155b61019c576040517f08c379a0000000000000000000000000000000000000000000000000000000008152600401610193906103b9565b60405180910390fd5b8294505050505090565b60008060009054906101000a900473ffffffffffffffffffffffffffffffffffffffff1673ffffffffffffffffffffffffffffffffffffffff1663313ce5676040518163ffffffff1660e01b815260040160206040518083038186803b15801561020f57600080fd5b505afa158015610223573d6000803e3d6000fd5b505050506040513d601f19601f820116820180604052508101906102479190610317565b905090565b60008151905061025b8161043c565b92915050565b60008151905061027081610453565b92915050565b60008151905061028581610481565b92915050565b60008151905061029a8161046a565b92915050565b600080600080600060a086880312156102b857600080fd5b60006102c688828901610276565b95505060206102d78882890161024c565b94505060406102e888828901610261565b93505060606102f988828901610261565b925050608061030a88828901610276565b9150509295509295909350565b60006020828403121561032957600080fd5b60006103378482850161028b565b91505092915050565b61034981610405565b82525050565b600061035c6017836103f4565b91507f496e76616c696420636861696e6c696e6b2070726963650000000000000000006000830152602082019050919050565b61039881610419565b82525050565b60006020820190506103b36000830184610340565b92915050565b600060208201905081810360008301526103d28161034f565b9050919050565b60006020820190506103ee600083018461038f565b92915050565b600082825260208201905092915050565b6000819050919050565b6000819050919050565b600060ff82169050919050565b600069ffffffffffffffffffff82169050919050565b61044581610405565b811461045057600080fd5b50565b61045c8161040f565b811461046757600080fd5b50565b61047381610419565b811461047e57600080fd5b50565b61048a81610426565b811461049557600080fd5b5056fea2646970667358221220b7551f6423df6f9a65494c4e95230849782fb6175e969f3be94fc334bc05eb4564736f6c63430006060033",
  "immutableReferences": {},
  "source": "// SPDX-License-Identifier: MIT\r\npragma solidity =0.6.6;\r\npragma experimental ABIEncoderV2;\r\n\r\nimport \"./AggregatorV3Interface.sol\";\r\n\r\ncontract ChainlinkETHUSDPriceConsumer {\r\n\r\n    AggregatorV3Interface internal priceFeed;\r\n\r\n\r\n    constructor() public {\r\n        priceFeed = AggregatorV3Interface(0x8A753747A1Fa494EC906cE90E9f37563A8AF630e);\r\n    }\r\n\r\n    /**\r\n     * Returns the latest price\r\n     */\r\n    function getLatestPrice() public view returns (int) {\r\n        (uint80 roundID, int price, , uint256 updatedAt, uint80 answeredInRound) = priceFeed.latestRoundData();\r\n        require(price >= 0 && updatedAt!= 0 && answeredInRound >= roundID, \"Invalid chainlink price\");\r\n        \r\n        return price;\r\n    }\r\n\r\n    function getDecimals() public view returns (uint8) {\r\n        return priceFeed.decimals();\r\n    }\r\n}",
  "sourcePath": "C:\\Users\\82102\\Desktop\\We-Made-Future\\contracts\\Token\\Oracle\\ChainlinkETHUSDPriceConsumer.sol",
  "compiler": {
    "name": "solc",
    "version": "0.6.6+commit.6c089d02.Emscripten.clang"
  },
  "schemaVersion": "3.4.4",
  "updatedAt": "2022-02-01T16:36:01.062Z",
  "devdoc": {
    "methods": {}
  },
  "userdoc": {
    "methods": {
      "getLatestPrice()": {
        "notice": "Returns the latest price"
      }
    }
  }
}