{
  "contractName": "WMFChef",
  "abi": [
    {
      "inputs": [
        {
          "internalType": "contract We_Made_Future",
          "name": "_WMF",
          "type": "address"
        },
        {
          "internalType": "address",
          "name": "_devaddr",
          "type": "address"
        },
        {
          "internalType": "address",
          "name": "_feeAddress",
          "type": "address"
        },
        {
          "internalType": "uint256",
          "name": "_WMFPerTime",
          "type": "uint256"
        },
        {
          "internalType": "uint256",
          "name": "_startTime",
          "type": "uint256"
        }
      ],
      "stateMutability": "nonpayable",
      "type": "constructor"
    },
    {
      "anonymous": false,
      "inputs": [
        {
          "indexed": true,
          "internalType": "address",
          "name": "user",
          "type": "address"
        },
        {
          "indexed": true,
          "internalType": "uint256",
          "name": "pid",
          "type": "uint256"
        },
        {
          "indexed": false,
          "internalType": "uint256",
          "name": "amount",
          "type": "uint256"
        }
      ],
      "name": "Deposit",
      "type": "event"
    },
    {
      "anonymous": false,
      "inputs": [
        {
          "indexed": true,
          "internalType": "address",
          "name": "user",
          "type": "address"
        },
        {
          "indexed": true,
          "internalType": "uint256",
          "name": "pid",
          "type": "uint256"
        },
        {
          "indexed": false,
          "internalType": "uint256",
          "name": "amount",
          "type": "uint256"
        }
      ],
      "name": "EmergencyWithdraw",
      "type": "event"
    },
    {
      "anonymous": false,
      "inputs": [
        {
          "indexed": true,
          "internalType": "address",
          "name": "previousOwner",
          "type": "address"
        },
        {
          "indexed": true,
          "internalType": "address",
          "name": "newOwner",
          "type": "address"
        }
      ],
      "name": "OwnershipTransferred",
      "type": "event"
    },
    {
      "anonymous": false,
      "inputs": [
        {
          "indexed": true,
          "internalType": "address",
          "name": "user",
          "type": "address"
        },
        {
          "indexed": true,
          "internalType": "address",
          "name": "newAddress",
          "type": "address"
        }
      ],
      "name": "SetDevAddress",
      "type": "event"
    },
    {
      "anonymous": false,
      "inputs": [
        {
          "indexed": true,
          "internalType": "address",
          "name": "user",
          "type": "address"
        },
        {
          "indexed": true,
          "internalType": "address",
          "name": "newAddress",
          "type": "address"
        }
      ],
      "name": "SetFeeAddress",
      "type": "event"
    },
    {
      "anonymous": false,
      "inputs": [
        {
          "indexed": true,
          "internalType": "address",
          "name": "user",
          "type": "address"
        },
        {
          "indexed": false,
          "internalType": "uint256",
          "name": "WMFPerSecond",
          "type": "uint256"
        }
      ],
      "name": "UpdateEmissionRate",
      "type": "event"
    },
    {
      "anonymous": false,
      "inputs": [
        {
          "indexed": false,
          "internalType": "uint256",
          "name": "newStartTime",
          "type": "uint256"
        }
      ],
      "name": "UpdateStartTime",
      "type": "event"
    },
    {
      "anonymous": false,
      "inputs": [
        {
          "indexed": false,
          "internalType": "bytes",
          "name": "reason",
          "type": "bytes"
        }
      ],
      "name": "WMFMintError",
      "type": "event"
    },
    {
      "anonymous": false,
      "inputs": [
        {
          "indexed": true,
          "internalType": "address",
          "name": "user",
          "type": "address"
        },
        {
          "indexed": true,
          "internalType": "uint256",
          "name": "pid",
          "type": "uint256"
        },
        {
          "indexed": false,
          "internalType": "uint256",
          "name": "amount",
          "type": "uint256"
        }
      ],
      "name": "Withdraw",
      "type": "event"
    },
    {
      "anonymous": false,
      "inputs": [
        {
          "indexed": true,
          "internalType": "uint256",
          "name": "pid",
          "type": "uint256"
        },
        {
          "indexed": false,
          "internalType": "address",
          "name": "lpToken",
          "type": "address"
        },
        {
          "indexed": false,
          "internalType": "uint256",
          "name": "allocPoint",
          "type": "uint256"
        },
        {
          "indexed": false,
          "internalType": "uint256",
          "name": "depositFeeBP",
          "type": "uint256"
        }
      ],
      "name": "addingPool",
      "type": "event"
    },
    {
      "anonymous": false,
      "inputs": [
        {
          "indexed": true,
          "internalType": "uint256",
          "name": "pid",
          "type": "uint256"
        },
        {
          "indexed": false,
          "internalType": "address",
          "name": "lpToken",
          "type": "address"
        },
        {
          "indexed": false,
          "internalType": "uint256",
          "name": "allocPoint",
          "type": "uint256"
        },
        {
          "indexed": false,
          "internalType": "uint256",
          "name": "depositFeeBP",
          "type": "uint256"
        }
      ],
      "name": "setPool",
      "type": "event"
    },
    {
      "inputs": [],
      "name": "MAX_EMISSION_RATE",
      "outputs": [
        {
          "internalType": "uint256",
          "name": "",
          "type": "uint256"
        }
      ],
      "stateMutability": "view",
      "type": "function",
      "constant": true
    },
    {
      "inputs": [],
      "name": "WMF",
      "outputs": [
        {
          "internalType": "contract We_Made_Future",
          "name": "",
          "type": "address"
        }
      ],
      "stateMutability": "view",
      "type": "function",
      "constant": true
    },
    {
      "inputs": [],
      "name": "WMFPerSecond",
      "outputs": [
        {
          "internalType": "uint256",
          "name": "",
          "type": "uint256"
        }
      ],
      "stateMutability": "view",
      "type": "function",
      "constant": true
    },
    {
      "inputs": [],
      "name": "devaddr",
      "outputs": [
        {
          "internalType": "address",
          "name": "",
          "type": "address"
        }
      ],
      "stateMutability": "view",
      "type": "function",
      "constant": true
    },
    {
      "inputs": [],
      "name": "feeAddress",
      "outputs": [
        {
          "internalType": "address",
          "name": "",
          "type": "address"
        }
      ],
      "stateMutability": "view",
      "type": "function",
      "constant": true
    },
    {
      "inputs": [],
      "name": "owner",
      "outputs": [
        {
          "internalType": "address",
          "name": "",
          "type": "address"
        }
      ],
      "stateMutability": "view",
      "type": "function",
      "constant": true
    },
    {
      "inputs": [
        {
          "internalType": "contract IERC20",
          "name": "",
          "type": "address"
        }
      ],
      "name": "poolExistence",
      "outputs": [
        {
          "internalType": "bool",
          "name": "",
          "type": "bool"
        }
      ],
      "stateMutability": "view",
      "type": "function",
      "constant": true
    },
    {
      "inputs": [
        {
          "internalType": "uint256",
          "name": "",
          "type": "uint256"
        }
      ],
      "name": "poolInfo",
      "outputs": [
        {
          "internalType": "contract IERC20",
          "name": "lpToken",
          "type": "address"
        },
        {
          "internalType": "uint256",
          "name": "allocPoint",
          "type": "uint256"
        },
        {
          "internalType": "uint256",
          "name": "lastRewardSecond",
          "type": "uint256"
        },
        {
          "internalType": "uint256",
          "name": "accWMFPerShare",
          "type": "uint256"
        },
        {
          "internalType": "uint16",
          "name": "depositFeeBP",
          "type": "uint16"
        },
        {
          "internalType": "uint256",
          "name": "lpSupply",
          "type": "uint256"
        }
      ],
      "stateMutability": "view",
      "type": "function",
      "constant": true
    },
    {
      "inputs": [],
      "name": "renounceOwnership",
      "outputs": [],
      "stateMutability": "nonpayable",
      "type": "function"
    },
    {
      "inputs": [],
      "name": "startTime",
      "outputs": [
        {
          "internalType": "uint256",
          "name": "",
          "type": "uint256"
        }
      ],
      "stateMutability": "view",
      "type": "function",
      "constant": true
    },
    {
      "inputs": [],
      "name": "totalAllocPoint",
      "outputs": [
        {
          "internalType": "uint256",
          "name": "",
          "type": "uint256"
        }
      ],
      "stateMutability": "view",
      "type": "function",
      "constant": true
    },
    {
      "inputs": [
        {
          "internalType": "address",
          "name": "newOwner",
          "type": "address"
        }
      ],
      "name": "transferOwnership",
      "outputs": [],
      "stateMutability": "nonpayable",
      "type": "function"
    },
    {
      "inputs": [
        {
          "internalType": "uint256",
          "name": "",
          "type": "uint256"
        },
        {
          "internalType": "address",
          "name": "",
          "type": "address"
        }
      ],
      "name": "userInfo",
      "outputs": [
        {
          "internalType": "uint256",
          "name": "amount",
          "type": "uint256"
        },
        {
          "internalType": "uint256",
          "name": "rewardDebt",
          "type": "uint256"
        }
      ],
      "stateMutability": "view",
      "type": "function",
      "constant": true
    },
    {
      "inputs": [],
      "name": "poolLength",
      "outputs": [
        {
          "internalType": "uint256",
          "name": "",
          "type": "uint256"
        }
      ],
      "stateMutability": "view",
      "type": "function",
      "constant": true
    },
    {
      "inputs": [
        {
          "internalType": "uint256",
          "name": "_allocPoint",
          "type": "uint256"
        },
        {
          "internalType": "contract IERC20",
          "name": "_lpToken",
          "type": "address"
        },
        {
          "internalType": "uint16",
          "name": "_depositFeeBP",
          "type": "uint16"
        },
        {
          "internalType": "bool",
          "name": "_withUpdate",
          "type": "bool"
        }
      ],
      "name": "add",
      "outputs": [],
      "stateMutability": "nonpayable",
      "type": "function"
    },
    {
      "inputs": [
        {
          "internalType": "uint256",
          "name": "_pid",
          "type": "uint256"
        },
        {
          "internalType": "uint256",
          "name": "_allocPoint",
          "type": "uint256"
        },
        {
          "internalType": "uint16",
          "name": "_depositFeeBP",
          "type": "uint16"
        },
        {
          "internalType": "bool",
          "name": "_withUpdate",
          "type": "bool"
        }
      ],
      "name": "set",
      "outputs": [],
      "stateMutability": "nonpayable",
      "type": "function"
    },
    {
      "inputs": [
        {
          "internalType": "uint256",
          "name": "_from",
          "type": "uint256"
        },
        {
          "internalType": "uint256",
          "name": "_to",
          "type": "uint256"
        }
      ],
      "name": "getMultiplier",
      "outputs": [
        {
          "internalType": "uint256",
          "name": "",
          "type": "uint256"
        }
      ],
      "stateMutability": "pure",
      "type": "function",
      "constant": true
    },
    {
      "inputs": [
        {
          "internalType": "uint256",
          "name": "_pid",
          "type": "uint256"
        },
        {
          "internalType": "address",
          "name": "_user",
          "type": "address"
        }
      ],
      "name": "pendingWMF",
      "outputs": [
        {
          "internalType": "uint256",
          "name": "",
          "type": "uint256"
        }
      ],
      "stateMutability": "view",
      "type": "function",
      "constant": true
    },
    {
      "inputs": [],
      "name": "massUpdatePools",
      "outputs": [],
      "stateMutability": "nonpayable",
      "type": "function"
    },
    {
      "inputs": [
        {
          "internalType": "uint256",
          "name": "_pid",
          "type": "uint256"
        }
      ],
      "name": "updatePool",
      "outputs": [],
      "stateMutability": "nonpayable",
      "type": "function"
    },
    {
      "inputs": [
        {
          "internalType": "uint256",
          "name": "_pid",
          "type": "uint256"
        },
        {
          "internalType": "uint256",
          "name": "_amount",
          "type": "uint256"
        }
      ],
      "name": "deposit",
      "outputs": [],
      "stateMutability": "nonpayable",
      "type": "function"
    },
    {
      "inputs": [
        {
          "internalType": "uint256",
          "name": "_pid",
          "type": "uint256"
        },
        {
          "internalType": "uint256",
          "name": "_amount",
          "type": "uint256"
        }
      ],
      "name": "withdraw",
      "outputs": [],
      "stateMutability": "nonpayable",
      "type": "function"
    },
    {
      "inputs": [
        {
          "internalType": "uint256",
          "name": "_pid",
          "type": "uint256"
        }
      ],
      "name": "emergencyWithdraw",
      "outputs": [],
      "stateMutability": "nonpayable",
      "type": "function"
    },
    {
      "inputs": [
        {
          "internalType": "address",
          "name": "_devaddr",
          "type": "address"
        }
      ],
      "name": "setDevAddress",
      "outputs": [],
      "stateMutability": "nonpayable",
      "type": "function"
    },
    {
      "inputs": [
        {
          "internalType": "address",
          "name": "_feeAddress",
          "type": "address"
        }
      ],
      "name": "setFeeAddress",
      "outputs": [],
      "stateMutability": "nonpayable",
      "type": "function"
    },
    {
      "inputs": [
        {
          "internalType": "uint256",
          "name": "_WMFPerSecond",
          "type": "uint256"
        }
      ],
      "name": "updateEmissionRate",
      "outputs": [],
      "stateMutability": "nonpayable",
      "type": "function"
    },
    {
      "inputs": [
        {
          "internalType": "uint256",
          "name": "_newStartTime",
          "type": "uint256"
        }
      ],
      "name": "updateStartTime",
      "outputs": [],
      "stateMutability": "nonpayable",
      "type": "function"
    }
  ],
  "bytecode": "0x60a060405260006007553480156200001657600080fd5b5060405162003b7d38038062003b7d833981810160405260a08110156200003c57600080fd5b810190808051906020019092919080519060200190929190805190602001909291908051906020019092919080519060200190929190505050600062000087620001fe60201b60201c565b9050806000806101000a81548173ffffffffffffffffffffffffffffffffffffffff021916908373ffffffffffffffffffffffffffffffffffffffff1602179055508073ffffffffffffffffffffffffffffffffffffffff16600073ffffffffffffffffffffffffffffffffffffffff167f8be0079c531659141344cd1fd0a4f28419497f9722a3daafe3b4186f6b6457e060405160405180910390a350600180819055508473ffffffffffffffffffffffffffffffffffffffff1660808173ffffffffffffffffffffffffffffffffffffffff1660601b8152505083600260006101000a81548173ffffffffffffffffffffffffffffffffffffffff021916908373ffffffffffffffffffffffffffffffffffffffff16021790555082600460006101000a81548173ffffffffffffffffffffffffffffffffffffffff021916908373ffffffffffffffffffffffffffffffffffffffff1602179055508160038190555080600881905550505050505062000206565b600033905090565b60805160601c6139456200023860003980611203528061167c5280612d6b5280612e525280612f3b52506139456000f3fe608060405234801561001057600080fd5b50600436106101a95760003560e01c8063630b5ba1116100f957806393f1a40b11610097578063d49e77cd11610071578063d49e77cd14610722578063d96384221461076c578063e2bbb158146107be578063f2fde38b146107f6576101a9565b806393f1a40b14610619578063cbd258b514610682578063d0d41fe1146106de576101a9565b806384e82a33116100d357806384e82a33146104d75780638705fcd41461053f5780638da5cb5b146105835780638dbb1e3a146105cd576101a9565b8063630b5ba1146104a5578063715018a6146104af57806378e97925146104b9576101a9565b806341275358116101665780634c47834a116101405780634c47834a1461039d57806351eb05a6146103ff5780635312ea8e1461042d5780635f38a26b1461045b576101a9565b806341275358146102fd578063436cc3d614610347578063441a3e7014610365576101a9565b806306bcf02f146101ae578063081e3eda146101dc5780630ba84cd2146101fa5780631526fe271461022857806317caf6f1146102c15780632fd87a4c146102df575b600080fd5b6101da600480360360208110156101c457600080fd5b810190808035906020019092919050505061083a565b005b6101e4610a46565b6040518082815260200191505060405180910390f35b6102266004803603602081101561021057600080fd5b8101908080359060200190929190505050610a53565b005b6102546004803603602081101561023e57600080fd5b8101908080359060200190929190505050610bfa565b604051808773ffffffffffffffffffffffffffffffffffffffff1673ffffffffffffffffffffffffffffffffffffffff1681526020018681526020018581526020018481526020018361ffff1661ffff168152602001828152602001965050505050505060405180910390f35b6102c9610c71565b6040518082815260200191505060405180910390f35b6102e7610c77565b6040518082815260200191505060405180910390f35b610305610c7d565b604051808273ffffffffffffffffffffffffffffffffffffffff1673ffffffffffffffffffffffffffffffffffffffff16815260200191505060405180910390f35b61034f610ca3565b6040518082815260200191505060405180910390f35b61039b6004803603604081101561037b57600080fd5b810190808035906020019092919080359060200190929190505050610caf565b005b6103e9600480360360408110156103b357600080fd5b8101908080359060200190929190803573ffffffffffffffffffffffffffffffffffffffff169060200190929190505050610fba565b6040518082815260200191505060405180910390f35b61042b6004803603602081101561041557600080fd5b8101908080359060200190929190505050611151565b005b6104596004803603602081101561044357600080fd5b8101908080359060200190929190505050611484565b005b61046361167a565b604051808273ffffffffffffffffffffffffffffffffffffffff1673ffffffffffffffffffffffffffffffffffffffff16815260200191505060405180910390f35b6104ad61169e565b005b6104b76116ce565b005b6104c1611856565b6040518082815260200191505060405180910390f35b61053d600480360360808110156104ed57600080fd5b8101908080359060200190929190803573ffffffffffffffffffffffffffffffffffffffff169060200190929190803561ffff16906020019092919080351515906020019092919050505061185c565b005b6105816004803603602081101561055557600080fd5b81019080803573ffffffffffffffffffffffffffffffffffffffff169060200190929190505050611d2d565b005b61058b611f31565b604051808273ffffffffffffffffffffffffffffffffffffffff1673ffffffffffffffffffffffffffffffffffffffff16815260200191505060405180910390f35b610603600480360360408110156105e357600080fd5b810190808035906020019092919080359060200190929190505050611f5a565b6040518082815260200191505060405180910390f35b6106656004803603604081101561062f57600080fd5b8101908080359060200190929190803573ffffffffffffffffffffffffffffffffffffffff169060200190929190505050611f77565b604051808381526020018281526020019250505060405180910390f35b6106c46004803603602081101561069857600080fd5b81019080803573ffffffffffffffffffffffffffffffffffffffff169060200190929190505050611fa8565b604051808215151515815260200191505060405180910390f35b610720600480360360208110156106f457600080fd5b81019080803573ffffffffffffffffffffffffffffffffffffffff169060200190929190505050611fc8565b005b61072a6121cc565b604051808273ffffffffffffffffffffffffffffffffffffffff1673ffffffffffffffffffffffffffffffffffffffff16815260200191505060405180910390f35b6107bc6004803603608081101561078257600080fd5b810190808035906020019092919080359060200190929190803561ffff1690602001909291908035151590602001909291905050506121f2565b005b6107f4600480360360408110156107d457600080fd5b81019080803590602001909291908035906020019092919050505061248c565b005b6108386004803603602081101561080c57600080fd5b81019080803573ffffffffffffffffffffffffffffffffffffffff169060200190929190505050612a38565b005b610842612c45565b73ffffffffffffffffffffffffffffffffffffffff166000809054906101000a900473ffffffffffffffffffffffffffffffffffffffff1673ffffffffffffffffffffffffffffffffffffffff1614610903576040517f08c379a00000000000000000000000000000000000000000000000000000000081526004018080602001828103825260208152602001807f4f776e61626c653a2063616c6c6572206973206e6f7420746865206f776e657281525060200191505060405180910390fd5b600854421061095d576040517f08c379a000000000000000000000000000000000000000000000000000000000815260040180806020018281038252603481526020018061386c6034913960400191505060405180910390fd5b8042106109b5576040517f08c379a000000000000000000000000000000000000000000000000000000000815260040180806020018281038252602181526020018061384b6021913960400191505060405180910390fd5b6000600580549050905060008090505b81811015610a01576000600582815481106109dc57fe5b90600052602060002090600602019050838160020181905550508060010190506109c5565b50816008819055507fa09018266c541576eb124551c9c57c82a8129add3ba6777a5974b1d0e6252e996008546040518082815260200191505060405180910390a15050565b6000600580549050905090565b610a5b612c45565b73ffffffffffffffffffffffffffffffffffffffff166000809054906101000a900473ffffffffffffffffffffffffffffffffffffffff1673ffffffffffffffffffffffffffffffffffffffff1614610b1c576040517f08c379a00000000000000000000000000000000000000000000000000000000081526004018080602001828103825260208152602001807f4f776e61626c653a2063616c6c6572206973206e6f7420746865206f776e657281525060200191505060405180910390fd5b670de0b6b3a7640000811115610b9a576040517f08c379a00000000000000000000000000000000000000000000000000000000081526004018080602001828103825260088152602001807f546f6f206869676800000000000000000000000000000000000000000000000081525060200191505060405180910390fd5b610ba261169e565b806003819055503373ffffffffffffffffffffffffffffffffffffffff167fe2492e003bbe8afa53088b406f0c1cb5d9e280370fc72a74cf116ffd343c4053826040518082815260200191505060405180910390a250565b60058181548110610c0757fe5b90600052602060002090600602016000915090508060000160009054906101000a900473ffffffffffffffffffffffffffffffffffffffff16908060010154908060020154908060030154908060040160009054906101000a900461ffff16908060050154905086565b60075481565b60035481565b600460009054906101000a900473ffffffffffffffffffffffffffffffffffffffff1681565b670de0b6b3a764000081565b60026001541415610d28576040517f08c379a000000000000000000000000000000000000000000000000000000000815260040180806020018281038252601f8152602001807f5265656e7472616e637947756172643a207265656e7472616e742063616c6c0081525060200191505060405180910390fd5b6002600181905550600060058381548110610d3f57fe5b9060005260206000209060060201905060006006600085815260200190815260200160002060003373ffffffffffffffffffffffffffffffffffffffff1673ffffffffffffffffffffffffffffffffffffffff16815260200190815260200160002090508281600001541015610e1d576040517f08c379a00000000000000000000000000000000000000000000000000000000081526004018080602001828103825260128152602001807f77697468647261773a206e6f7420676f6f64000000000000000000000000000081525060200191505060405180910390fd5b610e2684611151565b6000610e738260010154610e65670de0b6b3a7640000610e5787600301548760000154612c4d90919063ffffffff16565b612cd390919063ffffffff16565b612d1d90919063ffffffff16565b90506000811115610e8957610e883382612d67565b5b6000841115610f2057610ea9848360000154612d1d90919063ffffffff16565b8260000181905550610f0033858560000160009054906101000a900473ffffffffffffffffffffffffffffffffffffffff1673ffffffffffffffffffffffffffffffffffffffff166130979092919063ffffffff16565b610f17848460050154612d1d90919063ffffffff16565b83600501819055505b610f55670de0b6b3a7640000610f4785600301548560000154612c4d90919063ffffffff16565b612cd390919063ffffffff16565b8260010181905550843373ffffffffffffffffffffffffffffffffffffffff167ff279e6a1f5e320cca91135676d9cb6e44ca8a08c0b88342bcdb1144f6511b568866040518082815260200191505060405180910390a3505050600180819055505050565b60008060058481548110610fca57fe5b9060005260206000209060060201905060006006600086815260200190815260200160002060008573ffffffffffffffffffffffffffffffffffffffff1673ffffffffffffffffffffffffffffffffffffffff168152602001908152602001600020905060008260030154905082600201544211801561104f57506000836005015414155b801561105d57506000600754115b156110ff576000611072846002015442611f5a565b905060006110b56007546110a7876001015461109960035487612c4d90919063ffffffff16565b612c4d90919063ffffffff16565b612cd390919063ffffffff16565b90506110fa6110eb86600501546110dd670de0b6b3a764000085612c4d90919063ffffffff16565b612cd390919063ffffffff16565b8461314f90919063ffffffff16565b925050505b6111468260010154611138670de0b6b3a764000061112a858760000154612c4d90919063ffffffff16565b612cd390919063ffffffff16565b612d1d90919063ffffffff16565b935050505092915050565b60006005828154811061116057fe5b90600052602060002090600602019050806002015442116111815750611481565b600081600501541480611198575060008160010154145b156111ac5742816002018190555050611481565b60006111bc826002015442611f5a565b905060006111ff6007546111f185600101546111e360035487612c4d90919063ffffffff16565b612c4d90919063ffffffff16565b612cd390919063ffffffff16565b90507f000000000000000000000000000000000000000000000000000000000000000073ffffffffffffffffffffffffffffffffffffffff1663b4f56b2630836040518363ffffffff1660e01b8152600401808373ffffffffffffffffffffffffffffffffffffffff1673ffffffffffffffffffffffffffffffffffffffff16815260200182815260200192505050600060405180830381600087803b1580156112a857600080fd5b505af19250505080156112b9575060015b611395573d80600081146112e9576040519150601f19603f3d011682016040523d82523d6000602084013e6112ee565b606091505b50600091507f674ea87f0367f6873904f93c7357350b680a45c46f08203d20c873909b41660d816040518080602001828103825283818151815260200191508051906020019080838360005b8381101561135557808201518184015260208101905061133a565b50505050905090810190601f1680156113825780820380516001836020036101000a031916815260200191505b509250505060405180910390a150611396565b5b82600501546a0771d2fa45345aa90000001080156113c257506a0ee3a5f48a68b5520000008360050154105b156113ec5760c88360040160006101000a81548161ffff021916908361ffff160217905550611425565b6a0ee3a5f48a68b552000000836005015411156114245760008360040160006101000a81548161ffff021916908361ffff1602179055505b5b61146c611459846005015461144b670de0b6b3a764000085612c4d90919063ffffffff16565b612cd390919063ffffffff16565b846003015461314f90919063ffffffff16565b83600301819055504283600201819055505050505b50565b600260015414156114fd576040517f08c379a000000000000000000000000000000000000000000000000000000000815260040180806020018281038252601f8152602001807f5265656e7472616e637947756172643a207265656e7472616e742063616c6c0081525060200191505060405180910390fd5b600260018190555060006005828154811061151457fe5b9060005260206000209060060201905060006006600084815260200190815260200160002060003373ffffffffffffffffffffffffffffffffffffffff1673ffffffffffffffffffffffffffffffffffffffff168152602001908152602001600020905060008160000154905060008260000181905550600082600101819055506115e433828560000160009054906101000a900473ffffffffffffffffffffffffffffffffffffffff1673ffffffffffffffffffffffffffffffffffffffff166130979092919063ffffffff16565b8083600501541061161357611606818460050154612d1d90919063ffffffff16565b836005018190555061161e565b600083600501819055505b833373ffffffffffffffffffffffffffffffffffffffff167fbb757047c2b5f3974fe26b7c10f732e7bce710b0952a71082702781e62ae0595836040518082815260200191505060405180910390a35050506001808190555050565b7f000000000000000000000000000000000000000000000000000000000000000081565b6000600580549050905060008090505b818110156116ca576116bf81611151565b8060010190506116ae565b5050565b6116d6612c45565b73ffffffffffffffffffffffffffffffffffffffff166000809054906101000a900473ffffffffffffffffffffffffffffffffffffffff1673ffffffffffffffffffffffffffffffffffffffff1614611797576040517f08c379a00000000000000000000000000000000000000000000000000000000081526004018080602001828103825260208152602001807f4f776e61626c653a2063616c6c6572206973206e6f7420746865206f776e657281525060200191505060405180910390fd5b600073ffffffffffffffffffffffffffffffffffffffff166000809054906101000a900473ffffffffffffffffffffffffffffffffffffffff1673ffffffffffffffffffffffffffffffffffffffff167f8be0079c531659141344cd1fd0a4f28419497f9722a3daafe3b4186f6b6457e060405160405180910390a360008060006101000a81548173ffffffffffffffffffffffffffffffffffffffff021916908373ffffffffffffffffffffffffffffffffffffffff160217905550565b60085481565b611864612c45565b73ffffffffffffffffffffffffffffffffffffffff166000809054906101000a900473ffffffffffffffffffffffffffffffffffffffff1673ffffffffffffffffffffffffffffffffffffffff1614611925576040517f08c379a00000000000000000000000000000000000000000000000000000000081526004018080602001828103825260208152602001807f4f776e61626c653a2063616c6c6572206973206e6f7420746865206f776e657281525060200191505060405180910390fd5b8260001515600960008373ffffffffffffffffffffffffffffffffffffffff1673ffffffffffffffffffffffffffffffffffffffff16815260200190815260200160002060009054906101000a900460ff161515146119ec576040517f08c379a00000000000000000000000000000000000000000000000000000000081526004018080602001828103825260198152602001807f6e6f6e4475706c6963617465643a206475706c6963617465640000000000000081525060200191505060405180910390fd5b8373ffffffffffffffffffffffffffffffffffffffff166370a08231306040518263ffffffff1660e01b8152600401808273ffffffffffffffffffffffffffffffffffffffff1673ffffffffffffffffffffffffffffffffffffffff16815260200191505060206040518083038186803b158015611a6957600080fd5b505afa158015611a7d573d6000803e3d6000fd5b505050506040513d6020811015611a9357600080fd5b8101908080519060200190929190505050506101908361ffff161115611b04576040517f08c379a00000000000000000000000000000000000000000000000000000000081526004018080602001828103825260258152602001806137da6025913960400191505060405180910390fd5b8115611b1357611b1261169e565b5b60006008544211611b2657600854611b28565b425b9050611b3f8660075461314f90919063ffffffff16565b6007819055506001600960008773ffffffffffffffffffffffffffffffffffffffff1673ffffffffffffffffffffffffffffffffffffffff16815260200190815260200160002060006101000a81548160ff02191690831515021790555060056040518060c001604052808773ffffffffffffffffffffffffffffffffffffffff168152602001888152602001838152602001600081526020018661ffff1681526020016000815250908060018154018082558091505060019003906000526020600020906006020160009091909190915060008201518160000160006101000a81548173ffffffffffffffffffffffffffffffffffffffff021916908373ffffffffffffffffffffffffffffffffffffffff16021790555060208201518160010155604082015181600201556060820151816003015560808201518160040160006101000a81548161ffff021916908361ffff16021790555060a0820151816005015550506001600580549050037f0c06ca91cbb9ba69e83976eaeaa77c24f56dc37635ae9da89e4d78088edb682a868887604051808473ffffffffffffffffffffffffffffffffffffffff1673ffffffffffffffffffffffffffffffffffffffff1681526020018381526020018261ffff168152602001935050505060405180910390a2505050505050565b600460009054906101000a900473ffffffffffffffffffffffffffffffffffffffff1673ffffffffffffffffffffffffffffffffffffffff163373ffffffffffffffffffffffffffffffffffffffff1614611df0576040517f08c379a00000000000000000000000000000000000000000000000000000000081526004018080602001828103825260188152602001807f736574466565416464726573733a20464f5242494444454e000000000000000081525060200191505060405180910390fd5b600073ffffffffffffffffffffffffffffffffffffffff168173ffffffffffffffffffffffffffffffffffffffff161415611e93576040517f08c379a00000000000000000000000000000000000000000000000000000000081526004018080602001828103825260088152602001807f216e6f6e7a65726f00000000000000000000000000000000000000000000000081525060200191505060405180910390fd5b80600460006101000a81548173ffffffffffffffffffffffffffffffffffffffff021916908373ffffffffffffffffffffffffffffffffffffffff1602179055508073ffffffffffffffffffffffffffffffffffffffff163373ffffffffffffffffffffffffffffffffffffffff167fd44190acf9d04bdb5d3a1aafff7e6dee8b40b93dfb8c5d3f0eea4b9f4539c3f760405160405180910390a350565b60008060009054906101000a900473ffffffffffffffffffffffffffffffffffffffff16905090565b6000611f6f8383612d1d90919063ffffffff16565b905092915050565b6006602052816000526040600020602052806000526040600020600091509150508060000154908060010154905082565b60096020528060005260406000206000915054906101000a900460ff1681565b600260009054906101000a900473ffffffffffffffffffffffffffffffffffffffff1673ffffffffffffffffffffffffffffffffffffffff163373ffffffffffffffffffffffffffffffffffffffff161461208b576040517f08c379a00000000000000000000000000000000000000000000000000000000081526004018080602001828103825260098152602001807f6465763a207775743f000000000000000000000000000000000000000000000081525060200191505060405180910390fd5b600073ffffffffffffffffffffffffffffffffffffffff168173ffffffffffffffffffffffffffffffffffffffff16141561212e576040517f08c379a00000000000000000000000000000000000000000000000000000000081526004018080602001828103825260088152602001807f216e6f6e7a65726f00000000000000000000000000000000000000000000000081525060200191505060405180910390fd5b80600260006101000a81548173ffffffffffffffffffffffffffffffffffffffff021916908373ffffffffffffffffffffffffffffffffffffffff1602179055508073ffffffffffffffffffffffffffffffffffffffff163373ffffffffffffffffffffffffffffffffffffffff167f618c54559e94f1499a808aad71ee8729f8e74e8c48e979616328ce493a1a52e760405160405180910390a350565b600260009054906101000a900473ffffffffffffffffffffffffffffffffffffffff1681565b6121fa612c45565b73ffffffffffffffffffffffffffffffffffffffff166000809054906101000a900473ffffffffffffffffffffffffffffffffffffffff1673ffffffffffffffffffffffffffffffffffffffff16146122bb576040517f08c379a00000000000000000000000000000000000000000000000000000000081526004018080602001828103825260208152602001807f4f776e61626c653a2063616c6c6572206973206e6f7420746865206f776e657281525060200191505060405180910390fd5b6101908261ffff16111561231a576040517f08c379a00000000000000000000000000000000000000000000000000000000081526004018080602001828103825260258152602001806138c16025913960400191505060405180910390fd5b80156123295761232861169e565b5b61236e836123606005878154811061233d57fe5b906000526020600020906006020160010154600754612d1d90919063ffffffff16565b61314f90919063ffffffff16565b600781905550826005858154811061238257fe5b90600052602060002090600602016001018190555081600585815481106123a557fe5b906000526020600020906006020160040160006101000a81548161ffff021916908361ffff160217905550837f39f0c3d078af018954b4fa56832a05a2b511afaa999b133ea3f1c487c21ed287600586815481106123ff57fe5b906000526020600020906006020160000160009054906101000a900473ffffffffffffffffffffffffffffffffffffffff168585604051808473ffffffffffffffffffffffffffffffffffffffff1673ffffffffffffffffffffffffffffffffffffffff1681526020018381526020018261ffff168152602001935050505060405180910390a250505050565b60026001541415612505576040517f08c379a000000000000000000000000000000000000000000000000000000000815260040180806020018281038252601f8152602001807f5265656e7472616e637947756172643a207265656e7472616e742063616c6c0081525060200191505060405180910390fd5b600260018190555060006005838154811061251c57fe5b9060005260206000209060060201905060006006600085815260200190815260200160002060003373ffffffffffffffffffffffffffffffffffffffff1673ffffffffffffffffffffffffffffffffffffffff168152602001908152602001600020905061258984611151565b6000816000015411156125fb5760006125e382600101546125d5670de0b6b3a76400006125c787600301548760000154612c4d90919063ffffffff16565b612cd390919063ffffffff16565b612d1d90919063ffffffff16565b905060008111156125f9576125f83382612d67565b5b505b600083111561299f5760008260000160009054906101000a900473ffffffffffffffffffffffffffffffffffffffff1673ffffffffffffffffffffffffffffffffffffffff166370a08231306040518263ffffffff1660e01b8152600401808273ffffffffffffffffffffffffffffffffffffffff1673ffffffffffffffffffffffffffffffffffffffff16815260200191505060206040518083038186803b1580156126a757600080fd5b505afa1580156126bb573d6000803e3d6000fd5b505050506040513d60208110156126d157600080fd5b810190808051906020019092919050505090506127353330868660000160009054906101000a900473ffffffffffffffffffffffffffffffffffffffff1673ffffffffffffffffffffffffffffffffffffffff166131d7909392919063ffffffff16565b612823818460000160009054906101000a900473ffffffffffffffffffffffffffffffffffffffff1673ffffffffffffffffffffffffffffffffffffffff166370a08231306040518263ffffffff1660e01b8152600401808273ffffffffffffffffffffffffffffffffffffffff1673ffffffffffffffffffffffffffffffffffffffff16815260200191505060206040518083038186803b1580156127da57600080fd5b505afa1580156127ee573d6000803e3d6000fd5b505050506040513d602081101561280457600080fd5b8101908080519060200190929190505050612d1d90919063ffffffff16565b935060008360040160009054906101000a900461ffff1661ffff16111561295e5760006128836127106128758660040160009054906101000a900461ffff1661ffff1688612c4d90919063ffffffff16565b612cd390919063ffffffff16565b90506128f6600460009054906101000a900473ffffffffffffffffffffffffffffffffffffffff16828660000160009054906101000a900473ffffffffffffffffffffffffffffffffffffffff1673ffffffffffffffffffffffffffffffffffffffff166130979092919063ffffffff16565b61291f8161291187866000015461314f90919063ffffffff16565b612d1d90919063ffffffff16565b83600001819055506129508161294287876005015461314f90919063ffffffff16565b612d1d90919063ffffffff16565b84600501819055505061299d565b61297584836000015461314f90919063ffffffff16565b826000018190555061299484846005015461314f90919063ffffffff16565b83600501819055505b505b6129d4670de0b6b3a76400006129c684600301548460000154612c4d90919063ffffffff16565b612cd390919063ffffffff16565b8160010181905550833373ffffffffffffffffffffffffffffffffffffffff167f90890809c654f11d6e72a28fa60149770a0d11ec6c92319d6ceb2bb0a4ea1a15856040518082815260200191505060405180910390a35050600180819055505050565b612a40612c45565b73ffffffffffffffffffffffffffffffffffffffff166000809054906101000a900473ffffffffffffffffffffffffffffffffffffffff1673ffffffffffffffffffffffffffffffffffffffff1614612b01576040517f08c379a00000000000000000000000000000000000000000000000000000000081526004018080602001828103825260208152602001807f4f776e61626c653a2063616c6c6572206973206e6f7420746865206f776e657281525060200191505060405180910390fd5b600073ffffffffffffffffffffffffffffffffffffffff168173ffffffffffffffffffffffffffffffffffffffff161415612b87576040517f08c379a00000000000000000000000000000000000000000000000000000000081526004018080602001828103825260268152602001806137ff6026913960400191505060405180910390fd5b8073ffffffffffffffffffffffffffffffffffffffff166000809054906101000a900473ffffffffffffffffffffffffffffffffffffffff1673ffffffffffffffffffffffffffffffffffffffff167f8be0079c531659141344cd1fd0a4f28419497f9722a3daafe3b4186f6b6457e060405160405180910390a3806000806101000a81548173ffffffffffffffffffffffffffffffffffffffff021916908373ffffffffffffffffffffffffffffffffffffffff16021790555050565b600033905090565b600080831415612c605760009050612ccd565b6000828402905082848281612c7157fe5b0414612cc8576040517f08c379a00000000000000000000000000000000000000000000000000000000081526004018080602001828103825260218152602001806138a06021913960400191505060405180910390fd5b809150505b92915050565b6000612d1583836040518060400160405280601a81526020017f536166654d6174683a206469766973696f6e206279207a65726f0000000000008152506132c4565b905092915050565b6000612d5f83836040518060400160405280601e81526020017f536166654d6174683a207375627472616374696f6e206f766572666c6f77000081525061338a565b905092915050565b60007f000000000000000000000000000000000000000000000000000000000000000073ffffffffffffffffffffffffffffffffffffffff166370a08231306040518263ffffffff1660e01b8152600401808273ffffffffffffffffffffffffffffffffffffffff1673ffffffffffffffffffffffffffffffffffffffff16815260200191505060206040518083038186803b158015612e0657600080fd5b505afa158015612e1a573d6000803e3d6000fd5b505050506040513d6020811015612e3057600080fd5b81019080805190602001909291905050509050600080905081831115612f39577f000000000000000000000000000000000000000000000000000000000000000073ffffffffffffffffffffffffffffffffffffffff1663a9059cbb85846040518363ffffffff1660e01b8152600401808373ffffffffffffffffffffffffffffffffffffffff1673ffffffffffffffffffffffffffffffffffffffff16815260200182815260200192505050602060405180830381600087803b158015612ef757600080fd5b505af1158015612f0b573d6000803e3d6000fd5b505050506040513d6020811015612f2157600080fd5b8101908080519060200190929190505050905061301e565b7f000000000000000000000000000000000000000000000000000000000000000073ffffffffffffffffffffffffffffffffffffffff1663a9059cbb85856040518363ffffffff1660e01b8152600401808373ffffffffffffffffffffffffffffffffffffffff1673ffffffffffffffffffffffffffffffffffffffff16815260200182815260200192505050602060405180830381600087803b158015612fe057600080fd5b505af1158015612ff4573d6000803e3d6000fd5b505050506040513d602081101561300a57600080fd5b810190808051906020019092919050505090505b80613091576040517f08c379a00000000000000000000000000000000000000000000000000000000081526004018080602001828103825260208152602001807f73616665574d465472616e736665723a207472616e73666572206661696c656481525060200191505060405180910390fd5b50505050565b61314a8363a9059cbb60e01b8484604051602401808373ffffffffffffffffffffffffffffffffffffffff1673ffffffffffffffffffffffffffffffffffffffff16815260200182815260200192505050604051602081830303815290604052907bffffffffffffffffffffffffffffffffffffffffffffffffffffffff19166020820180517bffffffffffffffffffffffffffffffffffffffffffffffffffffffff838183161783525050505061344a565b505050565b6000808284019050838110156131cd576040517f08c379a000000000000000000000000000000000000000000000000000000000815260040180806020018281038252601b8152602001807f536166654d6174683a206164646974696f6e206f766572666c6f77000000000081525060200191505060405180910390fd5b8091505092915050565b6132be846323b872dd60e01b858585604051602401808473ffffffffffffffffffffffffffffffffffffffff1673ffffffffffffffffffffffffffffffffffffffff1681526020018373ffffffffffffffffffffffffffffffffffffffff1673ffffffffffffffffffffffffffffffffffffffff1681526020018281526020019350505050604051602081830303815290604052907bffffffffffffffffffffffffffffffffffffffffffffffffffffffff19166020820180517bffffffffffffffffffffffffffffffffffffffffffffffffffffffff838183161783525050505061344a565b50505050565b60008083118290613370576040517f08c379a00000000000000000000000000000000000000000000000000000000081526004018080602001828103825283818151815260200191508051906020019080838360005b8381101561333557808201518184015260208101905061331a565b50505050905090810190601f1680156133625780820380516001836020036101000a031916815260200191505b509250505060405180910390fd5b50600083858161337c57fe5b049050809150509392505050565b6000838311158290613437576040517f08c379a00000000000000000000000000000000000000000000000000000000081526004018080602001828103825283818151815260200191508051906020019080838360005b838110156133fc5780820151818401526020810190506133e1565b50505050905090810190601f1680156134295780820380516001836020036101000a031916815260200191505b509250505060405180910390fd5b5060008385039050809150509392505050565b60606134ac826040518060400160405280602081526020017f5361666545524332303a206c6f772d6c6576656c2063616c6c206661696c65648152508573ffffffffffffffffffffffffffffffffffffffff166135399092919063ffffffff16565b9050600081511115613534578080602001905160208110156134cd57600080fd5b8101908080519060200190929190505050613533576040517f08c379a000000000000000000000000000000000000000000000000000000000815260040180806020018281038252602a8152602001806138e6602a913960400191505060405180910390fd5b5b505050565b60606135488484600085613551565b90509392505050565b6060824710156135ac576040517f08c379a00000000000000000000000000000000000000000000000000000000081526004018080602001828103825260268152602001806138256026913960400191505060405180910390fd5b6135b5856136fa565b613627576040517f08c379a000000000000000000000000000000000000000000000000000000000815260040180806020018281038252601d8152602001807f416464726573733a2063616c6c20746f206e6f6e2d636f6e747261637400000081525060200191505060405180910390fd5b600060608673ffffffffffffffffffffffffffffffffffffffff1685876040518082805190602001908083835b602083106136775780518252602082019150602081019050602083039250613654565b6001836020036101000a03801982511681845116808217855250505050505090500191505060006040518083038185875af1925050503d80600081146136d9576040519150601f19603f3d011682016040523d82523d6000602084013e6136de565b606091505b50915091506136ee82828661370d565b92505050949350505050565b600080823b905060008111915050919050565b6060831561371d578290506137d2565b6000835111156137305782518084602001fd5b816040517f08c379a00000000000000000000000000000000000000000000000000000000081526004018080602001828103825283818151815260200191508051906020019080838360005b8381101561379757808201518184015260208101905061377c565b50505050905090810190601f1680156137c45780820380516001836020036101000a031916815260200191505b509250505060405180910390fd5b939250505056fe6164643a20696e76616c6964206465706f7369742066656520626173697320706f696e74734f776e61626c653a206e6577206f776e657220697320746865207a65726f2061646472657373416464726573733a20696e73756666696369656e742062616c616e636520666f722063616c6c63616e6e6f74207365742073746172742074696d6520696e20746865207061737463616e6e6f74206368616e67652073746172742074696d65206966206661726d2068617320616c72656164792073746172746564536166654d6174683a206d756c7469706c69636174696f6e206f766572666c6f777365743a20696e76616c6964206465706f7369742066656520626173697320706f696e74735361666545524332303a204552433230206f7065726174696f6e20646964206e6f742073756363656564a26469706673582212209a72442b44adb35b04edb40b5fae26273fa75443ab7ed174180ebdbcb81c6ec364736f6c63430006060033",
  "immutableReferences": {
    "3571": [
      {
        "length": 32,
        "start": 4611
      },
      {
        "length": 32,
        "start": 5756
      },
      {
        "length": 32,
        "start": 11627
      },
      {
        "length": 32,
        "start": 11858
      },
      {
        "length": 32,
        "start": 12091
      }
    ]
  },
  "source": "// SPDX-License-Identifier: MIT\r\npragma solidity =0.6.6;\r\n\r\nimport \"../module/Math/SafeMath.sol\";\r\nimport \"../module/ERC20/SafeERC20.sol\";\r\nimport \"../module/Common/Ownable.sol\";\r\nimport \"../module/Utils/ReentrancyGuard.sol\";\r\nimport \"../We_Made_Future.sol\";\r\n\r\ncontract WMFChef is Ownable, ReentrancyGuard {\r\n    using SafeMath for uint256;\r\n    using SafeERC20 for IERC20;\r\n\r\n    // Info of each user.\r\n    struct UserInfo {\r\n        uint256 amount;         // How many LP tokens the user has provided.\r\n        uint256 rewardDebt;     // Reward debt. See explanation below.\r\n        //\r\n        // We do some fancy math here. Basically, any point in time, the amount of WMF\r\n        // entitled to a user but is pending to be distributed is:\r\n        //\r\n        //   pending reward = (user.amount * pool.accWMFPerShare) - user.rewardDebt\r\n        //\r\n        // Whenever a user deposits or withdraws LP tokens to a pool. Here's what happens:\r\n        //   1. The pool's `accWMFPerShare` (and `lastRewardSecond`) gets updated.\r\n        //   2. User receives the pending reward sent to his/her address.\r\n        //   3. User's `amount` gets updated.\r\n        //   4. User's `rewardDebt` gets updated.\r\n    }\r\n\r\n    // Info of each pool.\r\n    struct PoolInfo {\r\n        IERC20 lpToken;           // Address of LP token contract.\r\n        uint256 allocPoint;       // How many allocation points assigned to this pool.\r\n        uint256 lastRewardSecond;  // Last second that WMFs distribution occurs.\r\n        uint256 accWMFPerShare;   // Accumulated WMFs per share, times 1e18. See below.\r\n        uint16 depositFeeBP;      // Deposit fee in basis points\r\n        uint256 lpSupply;\r\n    }\r\n\r\n    // The WMF TOKEN!\r\n    We_Made_Future public immutable WMF;\r\n    // Dev address.\r\n    address public devaddr;\r\n    // WMF tokens created per second.\r\n    uint256 public WMFPerSecond;\r\n    // Deposit Fee address\r\n    address public feeAddress;\r\n\r\n    // Info of each pool.\r\n    PoolInfo[] public poolInfo;\r\n    // Info of each user that stakes LP tokens.\r\n    mapping(uint256 => mapping(address => UserInfo)) public userInfo;\r\n    // Total allocation points. Must be the sum of all allocation points in all pools.\r\n    uint256 public totalAllocPoint = 0;\r\n    // The block timestamp when WMF mining starts.\r\n    uint256 public startTime;\r\n\r\n    // Maximum WMFPerTime\r\n    uint256 public constant MAX_EMISSION_RATE = 1000000000000000000;\r\n\r\n    constructor(\r\n        We_Made_Future _WMF,\r\n        address _devaddr,\r\n        address _feeAddress,\r\n        uint256 _WMFPerTime,\r\n        uint256 _startTime\r\n    ) public {\r\n        WMF = _WMF;\r\n        devaddr = _devaddr;\r\n        feeAddress = _feeAddress;\r\n        WMFPerSecond = _WMFPerTime;\r\n        startTime = _startTime;\r\n    }\r\n\r\n    function poolLength() external view returns (uint256) {\r\n        return poolInfo.length;\r\n    }\r\n\r\n    mapping(IERC20 => bool) public poolExistence;\r\n    modifier nonDuplicated(IERC20 _lpToken) {\r\n        require(poolExistence[_lpToken] == false, \"nonDuplicated: duplicated\");\r\n        _;\r\n    }\r\n\r\n    // Add a new lp to the pool. Can only be called by the owner.\r\n    function add(uint256 _allocPoint, IERC20 _lpToken, uint16 _depositFeeBP, bool _withUpdate) external onlyOwner nonDuplicated(_lpToken) {\r\n        // valid ERC20 token\r\n        _lpToken.balanceOf(address(this));\r\n\r\n        require(_depositFeeBP <= 400, \"add: invalid deposit fee basis points\");\r\n        if (_withUpdate) {\r\n            massUpdatePools();\r\n        }\r\n        uint256 lastRewardSecond = block.timestamp > startTime ? block.timestamp : startTime;\r\n        totalAllocPoint = totalAllocPoint.add(_allocPoint);\r\n        poolExistence[_lpToken] = true;\r\n        poolInfo.push(\r\n            PoolInfo({\r\n                lpToken : _lpToken,\r\n                allocPoint : _allocPoint,\r\n                lastRewardSecond : lastRewardSecond,\r\n                accWMFPerShare : 0,\r\n                depositFeeBP : _depositFeeBP,\r\n                lpSupply: 0\r\n            })\r\n        );\r\n\r\n        emit addingPool(poolInfo.length - 1, address(_lpToken), _allocPoint, _depositFeeBP);\r\n    }\r\n\r\n    // Update the given pool's WMF allocation point and deposit fee. Can only be called by the owner.\r\n    function set(uint256 _pid, uint256 _allocPoint, uint16 _depositFeeBP, bool _withUpdate) external onlyOwner {\r\n        require(_depositFeeBP <= 400, \"set: invalid deposit fee basis points\");\r\n        if (_withUpdate) {\r\n            massUpdatePools();\r\n        }\r\n        totalAllocPoint = totalAllocPoint.sub(poolInfo[_pid].allocPoint).add(_allocPoint);\r\n        poolInfo[_pid].allocPoint = _allocPoint;\r\n        poolInfo[_pid].depositFeeBP = _depositFeeBP;\r\n\r\n        emit setPool(_pid, address(poolInfo[_pid].lpToken), _allocPoint, _depositFeeBP);\r\n    }\r\n\r\n    // Return reward multiplier over the given _from to _to block.\r\n    function getMultiplier(uint256 _from, uint256 _to) public pure returns (uint256) {\r\n        return _to.sub(_from);\r\n    }\r\n\r\n    // View function to see pending WMFs on frontend.\r\n    function pendingWMF(uint256 _pid, address _user) external view returns (uint256) {\r\n        PoolInfo storage pool = poolInfo[_pid];\r\n        UserInfo storage user = userInfo[_pid][_user];\r\n        uint256 accWMFPerShare = pool.accWMFPerShare;\r\n        if (block.timestamp > pool.lastRewardSecond && pool.lpSupply != 0 && totalAllocPoint > 0) {\r\n            uint256 multiplier = getMultiplier(pool.lastRewardSecond, block.timestamp);\r\n            uint256 WMFReward = multiplier.mul(WMFPerSecond).mul(pool.allocPoint).div(totalAllocPoint);\r\n            accWMFPerShare = accWMFPerShare.add(WMFReward.mul(1e18).div(pool.lpSupply));\r\n        }\r\n        return user.amount.mul(accWMFPerShare).div(1e18).sub(user.rewardDebt);\r\n    }\r\n\r\n    // Update reward variables for all pools. Be careful of gas spending!\r\n    function massUpdatePools() public {\r\n        uint256 length = poolInfo.length;\r\n        for (uint256 pid = 0; pid < length; ++pid) {\r\n            updatePool(pid);\r\n        }\r\n    }\r\n\r\n    // Update reward variables of the given pool to be up-to-date.\r\n    function updatePool(uint256 _pid) public {\r\n        PoolInfo storage pool = poolInfo[_pid];\r\n        if (block.timestamp <= pool.lastRewardSecond) {\r\n            return;\r\n        }\r\n        if (pool.lpSupply == 0 || pool.allocPoint == 0) {\r\n            pool.lastRewardSecond = block.timestamp;\r\n            return;\r\n        }\r\n        uint256 multiplier = getMultiplier(pool.lastRewardSecond, block.timestamp);\r\n        uint256 WMFReward = multiplier.mul(WMFPerSecond).mul(pool.allocPoint).div(totalAllocPoint);\r\n        \r\n        try WMF.pool_mint(address(this), WMFReward) {\r\n        } catch (bytes memory reason) {\r\n            WMFReward = 0;\r\n            emit WMFMintError(reason);\r\n        }\r\n\r\n        if (9000000e18 < pool.lpSupply && pool.lpSupply < 18000000e18) {\r\n            pool.depositFeeBP = 200;\r\n        }\r\n        else if (pool.lpSupply > 18000000e18) {\r\n            pool.depositFeeBP = 0;\r\n        }\r\n        \r\n        pool.accWMFPerShare = pool.accWMFPerShare.add(WMFReward.mul(1e18).div(pool.lpSupply));\r\n        pool.lastRewardSecond = block.timestamp;\r\n    }\r\n    \r\n    // Deposit LP tokens to MasterChef for WMF allocation.\r\n    function deposit(uint256 _pid, uint256 _amount) external nonReentrant {\r\n        PoolInfo storage pool = poolInfo[_pid];\r\n        UserInfo storage user = userInfo[_pid][msg.sender];\r\n        updatePool(_pid);\r\n        if (user.amount > 0) {\r\n            uint256 pending = user.amount.mul(pool.accWMFPerShare).div(1e18).sub(user.rewardDebt);\r\n            if (pending > 0) {\r\n                safeWMFTransfer(msg.sender, pending);\r\n            }\r\n        }\r\n        if (_amount > 0) {\r\n            uint256 balanceBefore = pool.lpToken.balanceOf(address(this));\r\n            pool.lpToken.safeTransferFrom(address(msg.sender), address(this), _amount);\r\n            _amount = pool.lpToken.balanceOf(address(this)).sub(balanceBefore);\r\n            if (pool.depositFeeBP > 0) {\r\n                uint256 depositFee = _amount.mul(pool.depositFeeBP).div(10000);\r\n                pool.lpToken.safeTransfer(feeAddress, depositFee);\r\n                user.amount = user.amount.add(_amount).sub(depositFee);\r\n                pool.lpSupply = pool.lpSupply.add(_amount).sub(depositFee);\r\n            } else {\r\n                user.amount = user.amount.add(_amount);\r\n                pool.lpSupply = pool.lpSupply.add(_amount);\r\n            }\r\n        }\r\n\r\n        user.rewardDebt = user.amount.mul(pool.accWMFPerShare).div(1e18);\r\n        emit Deposit(msg.sender, _pid, _amount);\r\n    }\r\n\r\n    // Withdraw LP tokens from WMFChef.\r\n    function withdraw(uint256 _pid, uint256 _amount) external nonReentrant {\r\n        PoolInfo storage pool = poolInfo[_pid];\r\n        UserInfo storage user = userInfo[_pid][msg.sender];\r\n        require(user.amount >= _amount, \"withdraw: not good\");\r\n        updatePool(_pid);\r\n        uint256 pending = user.amount.mul(pool.accWMFPerShare).div(1e18).sub(user.rewardDebt);\r\n        if (pending > 0) {\r\n            safeWMFTransfer(msg.sender, pending);\r\n        }\r\n        if (_amount > 0) {\r\n            user.amount = user.amount.sub(_amount);\r\n            pool.lpToken.safeTransfer(address(msg.sender), _amount);\r\n            pool.lpSupply = pool.lpSupply.sub(_amount);\r\n        }\r\n\r\n        user.rewardDebt = user.amount.mul(pool.accWMFPerShare).div(1e18);\r\n        emit Withdraw(msg.sender, _pid, _amount);\r\n    }\r\n\r\n    // Withdraw without caring about rewards. EMERGENCY ONLY.\r\n    function emergencyWithdraw(uint256 _pid) external nonReentrant {\r\n        PoolInfo storage pool = poolInfo[_pid];\r\n        UserInfo storage user = userInfo[_pid][msg.sender];\r\n        uint256 amount = user.amount;\r\n        user.amount = 0;\r\n        user.rewardDebt = 0;\r\n        pool.lpToken.safeTransfer(address(msg.sender), amount);\r\n\r\n        if (pool.lpSupply >=  amount) {\r\n            pool.lpSupply = pool.lpSupply.sub(amount);\r\n        } else {\r\n            pool.lpSupply = 0;\r\n        }\r\n\r\n        emit EmergencyWithdraw(msg.sender, _pid, amount);\r\n    }\r\n\r\n    // Safe WMF transfer function, just in case if rounding error causes pool to not have enough WMFs.\r\n    function safeWMFTransfer(address _to, uint256 _amount) internal {\r\n        uint256 WMFBal = WMF.balanceOf(address(this));\r\n        bool transferSuccess = false;\r\n        if (_amount > WMFBal) {\r\n            transferSuccess = WMF.transfer(_to, WMFBal);\r\n        } else {\r\n            transferSuccess = WMF.transfer(_to, _amount);\r\n        }\r\n        require(transferSuccess, \"safeWMFTransfer: transfer failed\");\r\n    }\r\n\r\n    // Update dev address.\r\n    function setDevAddress(address _devaddr) external {\r\n        require(msg.sender == devaddr, \"dev: wut?\");\r\n        require(_devaddr != address(0), \"!nonzero\");\r\n\r\n        devaddr = _devaddr;\r\n        emit SetDevAddress(msg.sender, _devaddr);\r\n    }\r\n\r\n    function setFeeAddress(address _feeAddress) external {\r\n        require(msg.sender == feeAddress, \"setFeeAddress: FORBIDDEN\");\r\n        require(_feeAddress != address(0), \"!nonzero\");\r\n        feeAddress = _feeAddress;\r\n        emit SetFeeAddress(msg.sender, _feeAddress);\r\n    }\r\n\r\n // Pancake has to add hidden dummy pools inorder to alter the emission, here we make it simple and transparent to all.\r\n    function updateEmissionRate(uint256 _WMFPerSecond) external onlyOwner {\r\n        require(_WMFPerSecond <= MAX_EMISSION_RATE, \"Too high\");\r\n        massUpdatePools();\r\n        WMFPerSecond = _WMFPerSecond;\r\n        emit UpdateEmissionRate(msg.sender, _WMFPerSecond);\r\n    }\r\n\r\n    // Only update before start of farm\r\n    function updateStartTime(uint256 _newStartTime) external onlyOwner {\r\n        require(block.timestamp < startTime, \"cannot change start time if farm has already started\");\r\n        require(block.timestamp < _newStartTime, \"cannot set start time in the past\");\r\n        uint256 length = poolInfo.length;\r\n        for (uint256 pid = 0; pid < length; ++pid) {\r\n            PoolInfo storage pool = poolInfo[pid];\r\n            pool.lastRewardSecond = _newStartTime;\r\n        }\r\n        startTime = _newStartTime;\r\n\r\n        emit UpdateStartTime(startTime);\r\n    }\r\n\r\n\r\n    event Deposit(address indexed user, uint256 indexed pid, uint256 amount);\r\n    event Withdraw(address indexed user, uint256 indexed pid, uint256 amount);\r\n    event EmergencyWithdraw(address indexed user, uint256 indexed pid, uint256 amount);\r\n    event SetFeeAddress(address indexed user, address indexed newAddress);\r\n    event SetDevAddress(address indexed user, address indexed newAddress);\r\n    event UpdateEmissionRate(address indexed user, uint256 WMFPerSecond);\r\n    event addingPool(uint256 indexed pid, address lpToken, uint256 allocPoint, uint256 depositFeeBP);\r\n    event setPool(uint256 indexed pid, address lpToken, uint256 allocPoint, uint256 depositFeeBP);\r\n    event UpdateStartTime(uint256 newStartTime);\r\n    event WMFMintError(bytes reason);\r\n\r\n}",
  "sourcePath": "C:\\Users\\82102\\Desktop\\12341\\1212121212\\contracts\\Token\\Staking\\Farm.sol",
  "compiler": {
    "name": "solc",
    "version": "0.6.6+commit.6c089d02.Emscripten.clang"
  },
  "schemaVersion": "3.4.4",
  "updatedAt": "2022-02-06T12:10:49.485Z",
  "networkType": "ethereum",
  "devdoc": {
    "methods": {
      "owner()": {
        "details": "Returns the address of the current owner."
      },
      "renounceOwnership()": {
        "details": "Leaves the contract without owner. It will not be possible to call `onlyOwner` functions anymore. Can only be called by the current owner.      * NOTE: Renouncing ownership will leave the contract without an owner, thereby removing any functionality that is only available to the owner."
      },
      "transferOwnership(address)": {
        "details": "Transfers ownership of the contract to a new account (`newOwner`). Can only be called by the current owner."
      }
    }
  },
  "userdoc": {
    "methods": {}
  }
}