{
  "contractName": "WUSDOracleWrapper",
  "abi": [
    {
      "inputs": [
        {
          "internalType": "address",
          "name": "_creator_address",
          "type": "address"
        },
        {
          "internalType": "address",
          "name": "_timelock_address",
          "type": "address"
        }
      ],
      "stateMutability": "nonpayable",
      "type": "constructor"
    },
    {
      "anonymous": false,
      "inputs": [
        {
          "indexed": false,
          "internalType": "address",
          "name": "oldOwner",
          "type": "address"
        },
        {
          "indexed": false,
          "internalType": "address",
          "name": "newOwner",
          "type": "address"
        }
      ],
      "name": "OwnerChanged",
      "type": "event"
    },
    {
      "anonymous": false,
      "inputs": [
        {
          "indexed": false,
          "internalType": "address",
          "name": "newOwner",
          "type": "address"
        }
      ],
      "name": "OwnerNominated",
      "type": "event"
    },
    {
      "inputs": [],
      "name": "EXTRA_PRECISION",
      "outputs": [
        {
          "internalType": "uint256",
          "name": "",
          "type": "uint256"
        }
      ],
      "stateMutability": "view",
      "type": "function"
    },
    {
      "inputs": [],
      "name": "PRICE_PRECISION",
      "outputs": [
        {
          "internalType": "uint256",
          "name": "",
          "type": "uint256"
        }
      ],
      "stateMutability": "view",
      "type": "function"
    },
    {
      "inputs": [],
      "name": "acceptOwnership",
      "outputs": [],
      "stateMutability": "nonpayable",
      "type": "function"
    },
    {
      "inputs": [],
      "name": "chainlink_WUSD_eth_decimals",
      "outputs": [
        {
          "internalType": "uint256",
          "name": "",
          "type": "uint256"
        }
      ],
      "stateMutability": "view",
      "type": "function"
    },
    {
      "inputs": [
        {
          "internalType": "address",
          "name": "_owner",
          "type": "address"
        }
      ],
      "name": "nominateNewOwner",
      "outputs": [],
      "stateMutability": "nonpayable",
      "type": "function"
    },
    {
      "inputs": [],
      "name": "nominatedOwner",
      "outputs": [
        {
          "internalType": "address",
          "name": "",
          "type": "address"
        }
      ],
      "stateMutability": "view",
      "type": "function"
    },
    {
      "inputs": [],
      "name": "owner",
      "outputs": [
        {
          "internalType": "address",
          "name": "",
          "type": "address"
        }
      ],
      "stateMutability": "view",
      "type": "function"
    },
    {
      "inputs": [],
      "name": "timelock_address",
      "outputs": [
        {
          "internalType": "address",
          "name": "",
          "type": "address"
        }
      ],
      "stateMutability": "view",
      "type": "function"
    },
    {
      "inputs": [],
      "name": "getWUSDPrice",
      "outputs": [
        {
          "internalType": "uint256",
          "name": "raw_price",
          "type": "uint256"
        },
        {
          "internalType": "uint256",
          "name": "precise_price",
          "type": "uint256"
        }
      ],
      "stateMutability": "view",
      "type": "function"
    },
    {
      "inputs": [
        {
          "internalType": "address",
          "name": "token",
          "type": "address"
        },
        {
          "internalType": "uint256",
          "name": "amountIn",
          "type": "uint256"
        }
      ],
      "name": "consult",
      "outputs": [
        {
          "internalType": "uint256",
          "name": "amountOut",
          "type": "uint256"
        }
      ],
      "stateMutability": "view",
      "type": "function"
    },
    {
      "inputs": [
        {
          "internalType": "address",
          "name": "_chainlink_WUSD_eth_oracle",
          "type": "address"
        }
      ],
      "name": "setChainlinkWUSDETHOracle",
      "outputs": [],
      "stateMutability": "nonpayable",
      "type": "function"
    }
  ],
  "bytecode": "0x6080604052620f4240600455620f424060055534801561001e57600080fd5b506040516111fa3803806111fa8339818101604052604081101561004157600080fd5b81019080805190602001909291908051906020019092919050505081600073ffffffffffffffffffffffffffffffffffffffff168173ffffffffffffffffffffffffffffffffffffffff161415610100576040517f08c379a00000000000000000000000000000000000000000000000000000000081526004018080602001828103825260198152602001807f4f776e657220616464726573732063616e6e6f7420626520300000000000000081525060200191505060405180910390fd5b806000806101000a81548173ffffffffffffffffffffffffffffffffffffffff021916908373ffffffffffffffffffffffffffffffffffffffff1602179055507fb532073b38c83145e3e5135377a08bf9aab55bc0fd7c1179cd4fb995d2a5159c600082604051808373ffffffffffffffffffffffffffffffffffffffff1673ffffffffffffffffffffffffffffffffffffffff1681526020018273ffffffffffffffffffffffffffffffffffffffff1673ffffffffffffffffffffffffffffffffffffffff1681526020019250505060405180910390a15080600660006101000a81548173ffffffffffffffffffffffffffffffffffffffff021916908373ffffffffffffffffffffffffffffffffffffffff16021790555073b48c2315b3d2e64552ec37d6dadb542e7e0adc4c600260006101000a81548173ffffffffffffffffffffffffffffffffffffffff021916908373ffffffffffffffffffffffffffffffffffffffff160217905550600260009054906101000a900473ffffffffffffffffffffffffffffffffffffffff1673ffffffffffffffffffffffffffffffffffffffff1663313ce5676040518163ffffffff1660e01b815260040160206040518083038186803b1580156102d757600080fd5b505afa1580156102eb573d6000803e3d6000fd5b505050506040513d602081101561030157600080fd5b810190808051906020019092919050505060ff166003819055505050610ece8061032c6000396000f3fe608060405234801561001057600080fd5b50600436106100a95760003560e01c806379ba50971161007157806379ba5097146102075780638da5cb5b1461021157806395082d251461025b578063a9badc1414610279578063dc6663c714610297578063ffaa3b23146102e1576100a9565b80631627540c146100ae5780631b747bde146100f25780632137cc71146101175780633ddac9531461015b57806353a47bb7146101bd575b600080fd5b6100f0600480360360208110156100c457600080fd5b81019080803573ffffffffffffffffffffffffffffffffffffffff1690602001909291905050506102ff565b005b6100fa61044b565b604051808381526020018281526020019250505060405180910390f35b6101596004803603602081101561012d57600080fd5b81019080803573ffffffffffffffffffffffffffffffffffffffff169060200190929190505050610648565b005b6101a76004803603604081101561017157600080fd5b81019080803573ffffffffffffffffffffffffffffffffffffffff16906020019092919080359060200190929190505050610852565b6040518082815260200191505060405180910390f35b6101c56109d4565b604051808273ffffffffffffffffffffffffffffffffffffffff1673ffffffffffffffffffffffffffffffffffffffff16815260200191505060405180910390f35b61020f6109fa565b005b610219610c20565b604051808273ffffffffffffffffffffffffffffffffffffffff1673ffffffffffffffffffffffffffffffffffffffff16815260200191505060405180910390f35b610263610c45565b6040518082815260200191505060405180910390f35b610281610c4b565b6040518082815260200191505060405180910390f35b61029f610c51565b604051808273ffffffffffffffffffffffffffffffffffffffff1673ffffffffffffffffffffffffffffffffffffffff16815260200191505060405180910390f35b6102e9610c77565b6040518082815260200191505060405180910390f35b6000809054906101000a900473ffffffffffffffffffffffffffffffffffffffff1673ffffffffffffffffffffffffffffffffffffffff163373ffffffffffffffffffffffffffffffffffffffff16146103a4576040517f08c379a000000000000000000000000000000000000000000000000000000000815260040180806020018281038252602f815260200180610e49602f913960400191505060405180910390fd5b80600160006101000a81548173ffffffffffffffffffffffffffffffffffffffff021916908373ffffffffffffffffffffffffffffffffffffffff1602179055507f906a1c6bd7e3091ea86693dd029a831c19049ce77f1dce2ce0bab1cacbabce2281604051808273ffffffffffffffffffffffffffffffffffffffff1673ffffffffffffffffffffffffffffffffffffffff16815260200191505060405180910390a150565b600080600080600080600260009054906101000a900473ffffffffffffffffffffffffffffffffffffffff1673ffffffffffffffffffffffffffffffffffffffff1663feaf968c6040518163ffffffff1660e01b815260040160a06040518083038186803b1580156104bc57600080fd5b505afa1580156104d0573d6000803e3d6000fd5b505050506040513d60a08110156104e657600080fd5b8101908080519060200190929190805190602001909291908051906020019092919080519060200190929190805190602001909291905050509450945050935093506000831215801561053a575060008214155b801561055e57508369ffffffffffffffffffff168169ffffffffffffffffffff1610155b6105d0576040517f08c379a00000000000000000000000000000000000000000000000000000000081526004018080602001828103825260178152602001807f496e76616c696420636861696e6c696e6b20707269636500000000000000000081525060200191505060405180910390fd5b6105fc600354600a0a6105ee60045486610c7d90919063ffffffff16565b610d0390919063ffffffff16565b955061063e600354600a0a61063060055461062260045488610c7d90919063ffffffff16565b610c7d90919063ffffffff16565b610d0390919063ffffffff16565b9450505050509091565b6000809054906101000a900473ffffffffffffffffffffffffffffffffffffffff1673ffffffffffffffffffffffffffffffffffffffff163373ffffffffffffffffffffffffffffffffffffffff1614806106f05750600660009054906101000a900473ffffffffffffffffffffffffffffffffffffffff1673ffffffffffffffffffffffffffffffffffffffff163373ffffffffffffffffffffffffffffffffffffffff16145b610762576040517f08c379a00000000000000000000000000000000000000000000000000000000081526004018080602001828103825260158152602001807f4e6f74206f776e6572206f722074696d656c6f636b000000000000000000000081525060200191505060405180910390fd5b80600260006101000a81548173ffffffffffffffffffffffffffffffffffffffff021916908373ffffffffffffffffffffffffffffffffffffffff160217905550600260009054906101000a900473ffffffffffffffffffffffffffffffffffffffff1673ffffffffffffffffffffffffffffffffffffffff1663313ce5676040518163ffffffff1660e01b815260040160206040518083038186803b15801561080b57600080fd5b505afa15801561081f573d6000803e3d6000fd5b505050506040513d602081101561083557600080fd5b810190808051906020019092919050505060ff1660038190555050565b600073c778417e063141139fce010982780140aa0cd5ab73ffffffffffffffffffffffffffffffffffffffff168373ffffffffffffffffffffffffffffffffffffffff1614610909576040517f08c379a00000000000000000000000000000000000000000000000000000000081526004018080602001828103825260158152602001807f6d7573742075736520776574682061646472657373000000000000000000000081525060200191505060405180910390fd5b620f42408214610981576040517f08c379a00000000000000000000000000000000000000000000000000000000081526004018080602001828103825260128152602001807f6d7573742063616c6c207769746820316536000000000000000000000000000081525060200191505060405180910390fd5b600061098b61044b565b9150506109cb816109bd6005546109af600454600454610c7d90919063ffffffff16565b610c7d90919063ffffffff16565b610d0390919063ffffffff16565b91505092915050565b600160009054906101000a900473ffffffffffffffffffffffffffffffffffffffff1681565b600160009054906101000a900473ffffffffffffffffffffffffffffffffffffffff1673ffffffffffffffffffffffffffffffffffffffff163373ffffffffffffffffffffffffffffffffffffffff1614610aa0576040517f08c379a0000000000000000000000000000000000000000000000000000000008152600401808060200182810382526035815260200180610e146035913960400191505060405180910390fd5b7fb532073b38c83145e3e5135377a08bf9aab55bc0fd7c1179cd4fb995d2a5159c6000809054906101000a900473ffffffffffffffffffffffffffffffffffffffff16600160009054906101000a900473ffffffffffffffffffffffffffffffffffffffff16604051808373ffffffffffffffffffffffffffffffffffffffff1673ffffffffffffffffffffffffffffffffffffffff1681526020018273ffffffffffffffffffffffffffffffffffffffff1673ffffffffffffffffffffffffffffffffffffffff1681526020019250505060405180910390a1600160009054906101000a900473ffffffffffffffffffffffffffffffffffffffff166000806101000a81548173ffffffffffffffffffffffffffffffffffffffff021916908373ffffffffffffffffffffffffffffffffffffffff1602179055506000600160006101000a81548173ffffffffffffffffffffffffffffffffffffffff021916908373ffffffffffffffffffffffffffffffffffffffff160217905550565b6000809054906101000a900473ffffffffffffffffffffffffffffffffffffffff1681565b60045481565b60035481565b600660009054906101000a900473ffffffffffffffffffffffffffffffffffffffff1681565b60055481565b600080831415610c905760009050610cfd565b6000828402905082848281610ca157fe5b0414610cf8576040517f08c379a0000000000000000000000000000000000000000000000000000000008152600401808060200182810382526021815260200180610e786021913960400191505060405180910390fd5b809150505b92915050565b6000610d4583836040518060400160405280601a81526020017f536166654d6174683a206469766973696f6e206279207a65726f000000000000815250610d4d565b905092915050565b60008083118290610df9576040517f08c379a00000000000000000000000000000000000000000000000000000000081526004018080602001828103825283818151815260200191508051906020019080838360005b83811015610dbe578082015181840152602081019050610da3565b50505050905090810190601f168015610deb5780820380516001836020036101000a031916815260200191505b509250505060405180910390fd5b506000838581610e0557fe5b04905080915050939250505056fe596f75206d757374206265206e6f6d696e61746564206265666f726520796f752063616e20616363657074206f776e6572736869704f6e6c792074686520636f6e7472616374206f776e6572206d617920706572666f726d207468697320616374696f6e536166654d6174683a206d756c7469706c69636174696f6e206f766572666c6f77a264697066735822122082a407df589963e13fd8932a18e636a42b1b60ab9d174e01cb69b9359af3e83f64736f6c63430006060033",
  "immutableReferences": {},
  "source": "\r\npragma solidity =0.6.6;\r\n\r\n\r\nimport \"../module/Math/SafeMath.sol\";\r\nimport \"./AggregatorV3Interface.sol\";\r\nimport \"../Owned.sol\";\r\n\r\ncontract WUSDOracleWrapper is Owned {\r\n    using SafeMath for uint256;\r\n\r\n    AggregatorV3Interface private priceFeedWUSDETH;\r\n\r\n    uint256 public chainlink_WUSD_eth_decimals;\r\n\r\n    uint256 public PRICE_PRECISION = 1e6;\r\n    uint256 public EXTRA_PRECISION = 1e6;\r\n    address public timelock_address;\r\n\r\n    /* ========== MODIFIERS ========== */\r\n\r\n    modifier onlyByOwnGov() {\r\n        require(msg.sender == owner || msg.sender == timelock_address, \"Not owner or timelock\");\r\n        _;\r\n    }\r\n\r\n    /* ========== CONSTRUCTOR ========== */\r\n\r\n    constructor (\r\n        address _creator_address,\r\n        address _timelock_address\r\n    ) public Owned(_creator_address) {\r\n        timelock_address = _timelock_address;\r\n\r\n        // WUSD / ETH\r\n        priceFeedWUSDETH = AggregatorV3Interface(0xb48C2315b3D2e64552Ec37d6DaDb542e7E0Adc4c);\r\n        chainlink_WUSD_eth_decimals = priceFeedWUSDETH.decimals();\r\n    }\r\n\r\n    /* ========== VIEWS ========== */\r\n\r\n    function getWUSDPrice() public view returns (uint256 raw_price, uint256 precise_price) {\r\n        (uint80 roundID, int price, , uint256 updatedAt, uint80 answeredInRound) = priceFeedWUSDETH.latestRoundData();\r\n        require(price >= 0 && updatedAt!= 0 && answeredInRound >= roundID, \"Invalid chainlink price\");\r\n        \r\n        // E6\r\n        raw_price = uint256(price).mul(PRICE_PRECISION).div(uint256(10) ** chainlink_WUSD_eth_decimals);\r\n\r\n        // E12\r\n        precise_price = uint256(price).mul(PRICE_PRECISION).mul(EXTRA_PRECISION).div(uint256(10) ** chainlink_WUSD_eth_decimals);\r\n    }\r\n\r\n    // Override the logic of the WUSD-WETH Uniswap TWAP Oracle\r\n    // Expected Parameters: weth address, uint256 1e6\r\n    // Returns: WUSD-WETH Chainlink price (with 1e6 precision)\r\n    function consult(address token, uint amountIn) external view returns (uint amountOut) {\r\n        // safety checks (replacing regular WUSD-WETH oracle in WUSD.sol)\r\n        require(token == 0xc778417E063141139Fce010982780140Aa0cD5Ab, \"must use weth address\");\r\n        require(amountIn == 1e6, \"must call with 1e6\");\r\n\r\n        // needs to return it inverted\r\n        (, uint256 WUSD_precise_price) = getWUSDPrice(); \r\n        return PRICE_PRECISION.mul(PRICE_PRECISION).mul(EXTRA_PRECISION).div(WUSD_precise_price);\r\n    }\r\n\r\n    /* ========== RESTRICTED FUNCTIONS ========== */\r\n\r\n    function setChainlinkWUSDETHOracle(address _chainlink_WUSD_eth_oracle) external onlyByOwnGov {\r\n        priceFeedWUSDETH = AggregatorV3Interface(_chainlink_WUSD_eth_oracle);\r\n        chainlink_WUSD_eth_decimals = priceFeedWUSDETH.decimals();\r\n    }\r\n\r\n}",
  "sourcePath": "C:\\Users\\82102\\Desktop\\12341\\1212121212\\contracts\\Token\\Oracle\\WUSDOraclewrapper.sol",
  "compiler": {
    "name": "solc",
    "version": "0.6.6+commit.6c089d02.Emscripten.clang"
  },
  "schemaVersion": "3.4.4",
  "updatedAt": "2022-02-06T12:09:07.539Z",
  "devdoc": {
    "methods": {}
  },
  "userdoc": {
    "methods": {}
  }
}